{
  "fileName": "DarkForestStorageV1.sol",
  "contractName": "DarkForestStorageV1",
  "source": "// SPDX-License-Identifier: UNLICENSED\npragma solidity ^0.6.9;\n\n// Import base Initializable contract\nimport \"./DarkForestTypes.sol\";\nimport \"./Whitelist.sol\";\n\ncontract DarkForestStorageV1 {\n    // Contract housekeeping\n    address public adminAddress;\n    Whitelist whitelist;\n    bool public paused;\n\n    // Game config\n    uint256 public VERSION;\n    bool public DISABLE_ZK_CHECK;\n    uint256 public constant PERLIN_THRESHOLD = 18;\n    uint256 public constant GLOBAL_SPEED_IN_HUNDRETHS = 75;\n    uint256 public constant PLANET_RARITY = 16384;\n    uint256 public constant ENERGY_PER_SECOND = 17;\n    uint256 public constant ENERGY_CAP = 200000;\n    uint256 public constant TRADING_POST_RARITY = 16;\n    uint256 public constant SILVER_RARITY = 4;\n    uint256 public constant TRADING_POST_BARBARIANS = 50;\n\n    // Default planet type stats\n    uint256[] public planetLevelThresholds;\n    uint256[] public planetTypeThresholds;\n    uint256[] public cumulativeRarities;\n    uint256[] public initializedPlanetCountByLevel;\n    DarkForestTypes.PlanetDefaultStats[] public planetDefaultStats;\n    DarkForestTypes.Upgrade[4][3] public upgrades;\n\n    // Game world state\n    uint256 gameEndTimestamp;\n    uint256 target4RadiusConstant;\n    uint256 target5RadiusConstant;\n    uint256[] public planetIds;\n    address[] public playerIds;\n    uint256 public worldRadius;\n    uint256 public planetEventsCount;\n    mapping(uint256 => DarkForestTypes.Planet) public planets;\n    mapping(uint256 => DarkForestTypes.PlanetExtendedInfo)\n        public planetsExtendedInfo;\n    mapping(address => bool) public isPlayerInitialized;\n\n    // maps location id to planet events array\n    mapping(uint256 => DarkForestTypes.PlanetEventMetadata[])\n        public planetEvents;\n\n    // maps event id to arrival data\n    mapping(uint256 => DarkForestTypes.ArrivalData) public planetArrivals;\n\n    // no-op for now since no player energy\n    // mapping(address => DarkForestTypes.PlayerInfo) public playerInfos;\n}\n",
  "sourcePath": "contracts/core/DarkForestStorageV1.sol",
  "abi": [
    {
      "inputs": [],
      "name": "DISABLE_ZK_CHECK",
      "outputs": [
        {
          "internalType": "bool",
          "name": "",
          "type": "bool"
        }
      ],
      "stateMutability": "view",
      "type": "function"
    },
    {
      "inputs": [],
      "name": "ENERGY_CAP",
      "outputs": [
        {
          "internalType": "uint256",
          "name": "",
          "type": "uint256"
        }
      ],
      "stateMutability": "view",
      "type": "function"
    },
    {
      "inputs": [],
      "name": "ENERGY_PER_SECOND",
      "outputs": [
        {
          "internalType": "uint256",
          "name": "",
          "type": "uint256"
        }
      ],
      "stateMutability": "view",
      "type": "function"
    },
    {
      "inputs": [],
      "name": "GLOBAL_SPEED_IN_HUNDRETHS",
      "outputs": [
        {
          "internalType": "uint256",
          "name": "",
          "type": "uint256"
        }
      ],
      "stateMutability": "view",
      "type": "function"
    },
    {
      "inputs": [],
      "name": "PERLIN_THRESHOLD",
      "outputs": [
        {
          "internalType": "uint256",
          "name": "",
          "type": "uint256"
        }
      ],
      "stateMutability": "view",
      "type": "function"
    },
    {
      "inputs": [],
      "name": "PLANET_RARITY",
      "outputs": [
        {
          "internalType": "uint256",
          "name": "",
          "type": "uint256"
        }
      ],
      "stateMutability": "view",
      "type": "function"
    },
    {
      "inputs": [],
      "name": "SILVER_RARITY",
      "outputs": [
        {
          "internalType": "uint256",
          "name": "",
          "type": "uint256"
        }
      ],
      "stateMutability": "view",
      "type": "function"
    },
    {
      "inputs": [],
      "name": "TRADING_POST_BARBARIANS",
      "outputs": [
        {
          "internalType": "uint256",
          "name": "",
          "type": "uint256"
        }
      ],
      "stateMutability": "view",
      "type": "function"
    },
    {
      "inputs": [],
      "name": "TRADING_POST_RARITY",
      "outputs": [
        {
          "internalType": "uint256",
          "name": "",
          "type": "uint256"
        }
      ],
      "stateMutability": "view",
      "type": "function"
    },
    {
      "inputs": [],
      "name": "VERSION",
      "outputs": [
        {
          "internalType": "uint256",
          "name": "",
          "type": "uint256"
        }
      ],
      "stateMutability": "view",
      "type": "function"
    },
    {
      "inputs": [],
      "name": "adminAddress",
      "outputs": [
        {
          "internalType": "address",
          "name": "",
          "type": "address"
        }
      ],
      "stateMutability": "view",
      "type": "function"
    },
    {
      "inputs": [
        {
          "internalType": "uint256",
          "name": "",
          "type": "uint256"
        }
      ],
      "name": "cumulativeRarities",
      "outputs": [
        {
          "internalType": "uint256",
          "name": "",
          "type": "uint256"
        }
      ],
      "stateMutability": "view",
      "type": "function"
    },
    {
      "inputs": [
        {
          "internalType": "uint256",
          "name": "",
          "type": "uint256"
        }
      ],
      "name": "initializedPlanetCountByLevel",
      "outputs": [
        {
          "internalType": "uint256",
          "name": "",
          "type": "uint256"
        }
      ],
      "stateMutability": "view",
      "type": "function"
    },
    {
      "inputs": [
        {
          "internalType": "address",
          "name": "",
          "type": "address"
        }
      ],
      "name": "isPlayerInitialized",
      "outputs": [
        {
          "internalType": "bool",
          "name": "",
          "type": "bool"
        }
      ],
      "stateMutability": "view",
      "type": "function"
    },
    {
      "inputs": [],
      "name": "paused",
      "outputs": [
        {
          "internalType": "bool",
          "name": "",
          "type": "bool"
        }
      ],
      "stateMutability": "view",
      "type": "function"
    },
    {
      "inputs": [
        {
          "internalType": "uint256",
          "name": "",
          "type": "uint256"
        }
      ],
      "name": "planetArrivals",
      "outputs": [
        {
          "internalType": "uint256",
          "name": "id",
          "type": "uint256"
        },
        {
          "internalType": "address",
          "name": "player",
          "type": "address"
        },
        {
          "internalType": "uint256",
          "name": "fromPlanet",
          "type": "uint256"
        },
        {
          "internalType": "uint256",
          "name": "toPlanet",
          "type": "uint256"
        },
        {
          "internalType": "uint256",
          "name": "popArriving",
          "type": "uint256"
        },
        {
          "internalType": "uint256",
          "name": "silverMoved",
          "type": "uint256"
        },
        {
          "internalType": "uint256",
          "name": "departureTime",
          "type": "uint256"
        },
        {
          "internalType": "uint256",
          "name": "arrivalTime",
          "type": "uint256"
        }
      ],
      "stateMutability": "view",
      "type": "function"
    },
    {
      "inputs": [
        {
          "internalType": "uint256",
          "name": "",
          "type": "uint256"
        }
      ],
      "name": "planetDefaultStats",
      "outputs": [
        {
          "internalType": "string",
          "name": "label",
          "type": "string"
        },
        {
          "internalType": "uint256",
          "name": "populationCap",
          "type": "uint256"
        },
        {
          "internalType": "uint256",
          "name": "populationGrowth",
          "type": "uint256"
        },
        {
          "internalType": "uint256",
          "name": "range",
          "type": "uint256"
        },
        {
          "internalType": "uint256",
          "name": "silverGrowth",
          "type": "uint256"
        },
        {
          "internalType": "uint256",
          "name": "silverCap",
          "type": "uint256"
        },
        {
          "internalType": "uint256",
          "name": "silverMax",
          "type": "uint256"
        },
        {
          "internalType": "uint256",
          "name": "barbarianPercentage",
          "type": "uint256"
        },
        {
          "internalType": "uint256",
          "name": "energyCost",
          "type": "uint256"
        }
      ],
      "stateMutability": "view",
      "type": "function"
    },
    {
      "inputs": [
        {
          "internalType": "uint256",
          "name": "",
          "type": "uint256"
        },
        {
          "internalType": "uint256",
          "name": "",
          "type": "uint256"
        }
      ],
      "name": "planetEvents",
      "outputs": [
        {
          "internalType": "uint256",
          "name": "id",
          "type": "uint256"
        },
        {
          "internalType": "enum DarkForestTypes.PlanetEventType",
          "name": "eventType",
          "type": "uint8"
        },
        {
          "internalType": "uint256",
          "name": "timeTrigger",
          "type": "uint256"
        },
        {
          "internalType": "uint256",
          "name": "timeAdded",
          "type": "uint256"
        }
      ],
      "stateMutability": "view",
      "type": "function"
    },
    {
      "inputs": [],
      "name": "planetEventsCount",
      "outputs": [
        {
          "internalType": "uint256",
          "name": "",
          "type": "uint256"
        }
      ],
      "stateMutability": "view",
      "type": "function"
    },
    {
      "inputs": [
        {
          "internalType": "uint256",
          "name": "",
          "type": "uint256"
        }
      ],
      "name": "planetIds",
      "outputs": [
        {
          "internalType": "uint256",
          "name": "",
          "type": "uint256"
        }
      ],
      "stateMutability": "view",
      "type": "function"
    },
    {
      "inputs": [
        {
          "internalType": "uint256",
          "name": "",
          "type": "uint256"
        }
      ],
      "name": "planetLevelThresholds",
      "outputs": [
        {
          "internalType": "uint256",
          "name": "",
          "type": "uint256"
        }
      ],
      "stateMutability": "view",
      "type": "function"
    },
    {
      "inputs": [
        {
          "internalType": "uint256",
          "name": "",
          "type": "uint256"
        }
      ],
      "name": "planetTypeThresholds",
      "outputs": [
        {
          "internalType": "uint256",
          "name": "",
          "type": "uint256"
        }
      ],
      "stateMutability": "view",
      "type": "function"
    },
    {
      "inputs": [
        {
          "internalType": "uint256",
          "name": "",
          "type": "uint256"
        }
      ],
      "name": "planets",
      "outputs": [
        {
          "internalType": "address",
          "name": "owner",
          "type": "address"
        },
        {
          "internalType": "uint256",
          "name": "range",
          "type": "uint256"
        },
        {
          "internalType": "uint256",
          "name": "population",
          "type": "uint256"
        },
        {
          "internalType": "uint256",
          "name": "populationCap",
          "type": "uint256"
        },
        {
          "internalType": "uint256",
          "name": "populationGrowth",
          "type": "uint256"
        },
        {
          "internalType": "enum DarkForestTypes.PlanetResource",
          "name": "planetResource",
          "type": "uint8"
        },
        {
          "internalType": "uint256",
          "name": "silverCap",
          "type": "uint256"
        },
        {
          "internalType": "uint256",
          "name": "silverGrowth",
          "type": "uint256"
        },
        {
          "internalType": "uint256",
          "name": "silver",
          "type": "uint256"
        },
        {
          "internalType": "uint256",
          "name": "silverMax",
          "type": "uint256"
        },
        {
          "internalType": "uint256",
          "name": "planetLevel",
          "type": "uint256"
        },
        {
          "internalType": "enum DarkForestTypes.PlanetType",
          "name": "planetType",
          "type": "uint8"
        }
      ],
      "stateMutability": "view",
      "type": "function"
    },
    {
      "inputs": [
        {
          "internalType": "uint256",
          "name": "",
          "type": "uint256"
        }
      ],
      "name": "planetsExtendedInfo",
      "outputs": [
        {
          "internalType": "bool",
          "name": "isInitialized",
          "type": "bool"
        },
        {
          "internalType": "uint256",
          "name": "version",
          "type": "uint256"
        },
        {
          "internalType": "uint256",
          "name": "lastUpdated",
          "type": "uint256"
        },
        {
          "internalType": "uint256",
          "name": "perlin",
          "type": "uint256"
        },
        {
          "internalType": "uint256",
          "name": "upgradeState0",
          "type": "uint256"
        },
        {
          "internalType": "uint256",
          "name": "upgradeState1",
          "type": "uint256"
        },
        {
          "internalType": "uint256",
          "name": "upgradeState2",
          "type": "uint256"
        }
      ],
      "stateMutability": "view",
      "type": "function"
    },
    {
      "inputs": [
        {
          "internalType": "uint256",
          "name": "",
          "type": "uint256"
        }
      ],
      "name": "playerIds",
      "outputs": [
        {
          "internalType": "address",
          "name": "",
          "type": "address"
        }
      ],
      "stateMutability": "view",
      "type": "function"
    },
    {
      "inputs": [
        {
          "internalType": "uint256",
          "name": "",
          "type": "uint256"
        },
        {
          "internalType": "uint256",
          "name": "",
          "type": "uint256"
        }
      ],
      "name": "upgrades",
      "outputs": [
        {
          "internalType": "uint256",
          "name": "popCapMultiplier",
          "type": "uint256"
        },
        {
          "internalType": "uint256",
          "name": "popGroMultiplier",
          "type": "uint256"
        },
        {
          "internalType": "uint256",
          "name": "silverCapMultiplier",
          "type": "uint256"
        },
        {
          "internalType": "uint256",
          "name": "silverGroMultiplier",
          "type": "uint256"
        },
        {
          "internalType": "uint256",
          "name": "silverMaxMultiplier",
          "type": "uint256"
        },
        {
          "internalType": "uint256",
          "name": "rangeMultiplier",
          "type": "uint256"
        },
        {
          "internalType": "uint256",
          "name": "silverCostMultiplier",
          "type": "uint256"
        }
      ],
      "stateMutability": "view",
      "type": "function"
    },
    {
      "inputs": [],
      "name": "worldRadius",
      "outputs": [
        {
          "internalType": "uint256",
          "name": "",
          "type": "uint256"
        }
      ],
      "stateMutability": "view",
      "type": "function"
    }
  ],
  "bytecode": "0x608060405234801561001057600080fd5b50610d89806100206000396000f3fe608060405234801561001057600080fd5b50600436106101a95760003560e01c8063ad489091116100f9578063ccf738e911610097578063fbb7fc6c11610071578063fbb7fc6c1461084d578063fc6f94681461086b578063fc96355d1461089f578063ffa1ad74146108bd576101a9565b8063ccf738e9146107a3578063d9c1041f14610811578063de2edb911461082f576101a9565b8063bb4908f2116100d3578063bb4908f214610699578063bb5a86bd146106b7578063c012b112146106d5578063c93594911461072d576101a9565b8063ad4890911461055a578063b5549e641461059c578063b8b0fa911461067b576101a9565b80635c975abb116101665780637c58580f116101405780637c58580f146104565780638af9d562146104745780639184f0b614610494578063ab230321146104ee576101a9565b80635c975abb1461038f578063684ee29d146103af57806376af38b4146103cd576101a9565b806310d4abf2146101ae5780631f2836b7146101f0578063221f77641461023257806326c1e7501461027457806336b3d1481461032f5780634eb0e95914610371575b600080fd5b6101da600480360360208110156101c457600080fd5b81019080803590602001909291905050506108db565b6040518082815260200191505060405180910390f35b61021c6004803603602081101561020657600080fd5b81019080803590602001909291905050506108fc565b6040518082815260200191505060405180910390f35b61025e6004803603602081101561024857600080fd5b810190808035906020019092919050505061091d565b6040518082815260200191505060405180910390f35b6102a06004803603602081101561028a57600080fd5b810190808035906020019092919050505061093e565b604051808d73ffffffffffffffffffffffffffffffffffffffff1681526020018c81526020018b81526020018a81526020018981526020018860018111156102e457fe5b815260200187815260200186815260200185815260200184815260200183815260200182600181111561031357fe5b81526020019c5050505050505050505050505060405180910390f35b61035b6004803603602081101561034557600080fd5b81019080803590602001909291905050506109d8565b6040518082815260200191505060405180910390f35b6103796109f9565b6040518082815260200191505060405180910390f35b6103976109ff565b60405180821515815260200191505060405180910390f35b6103b7610a12565b6040518082815260200191505060405180910390f35b6103f9600480360360208110156103e357600080fd5b8101908080359060200190929190505050610a17565b604051808981526020018873ffffffffffffffffffffffffffffffffffffffff1681526020018781526020018681526020018581526020018481526020018381526020018281526020019850505050505050505060405180910390f35b61045e610a7f565b6040518082815260200191505060405180910390f35b61047c610a84565b60405180821515815260200191505060405180910390f35b6104d6600480360360208110156104aa57600080fd5b81019080803573ffffffffffffffffffffffffffffffffffffffff169060200190929190505050610a97565b60405180821515815260200191505060405180910390f35b6105246004803603604081101561050457600080fd5b810190808035906020019092919080359060200190929190505050610ab7565b6040518085815260200184600081111561053a57fe5b815260200183815260200182815260200194505050505060405180910390f35b6105866004803603602081101561057057600080fd5b8101908080359060200190929190505050610b0e565b6040518082815260200191505060405180910390f35b6105c8600480360360208110156105b257600080fd5b8101908080359060200190929190505050610b2f565b60405180806020018a815260200189815260200188815260200187815260200186815260200185815260200184815260200183815260200182810382528b818151815260200191508051906020019080838360005b8381101561063857808201518184015260208101905061061d565b50505050905090810190601f1680156106655780820380516001836020036101000a031916815260200191505b509a505050505050505050505060405180910390f35b610683610c22565b6040518082815260200191505060405180910390f35b6106a1610c27565b6040518082815260200191505060405180910390f35b6106bf610c2d565b6040518082815260200191505060405180910390f35b610701600480360360208110156106eb57600080fd5b8101908080359060200190929190505050610c32565b604051808273ffffffffffffffffffffffffffffffffffffffff16815260200191505060405180910390f35b6107636004803603604081101561074357600080fd5b810190808035906020019092919080359060200190929190505050610c6e565b6040518088815260200187815260200186815260200185815260200184815260200183815260200182815260200197505050505050505060405180910390f35b6107cf600480360360208110156107b957600080fd5b8101908080359060200190929190505050610cc3565b60405180881515815260200187815260200186815260200185815260200184815260200183815260200182815260200197505050505050505060405180910390f35b610819610d12565b6040518082815260200191505060405180910390f35b610837610d17565b6040518082815260200191505060405180910390f35b610855610d1d565b6040518082815260200191505060405180910390f35b610873610d22565b604051808273ffffffffffffffffffffffffffffffffffffffff16815260200191505060405180910390f35b6108a7610d46565b6040518082815260200191505060405180910390f35b6108c5610d4d565b6040518082815260200191505060405180910390f35b600681815481106108e857fe5b906000526020600020016000915090505481565b6007818154811061090957fe5b906000526020600020016000915090505481565b6004818154811061092a57fe5b906000526020600020016000915090505481565b60646020528060005260406000206000915090508060000160009054906101000a900473ffffffffffffffffffffffffffffffffffffffff16908060010154908060020154908060030154908060040154908060050160009054906101000a900460ff169080600601549080600701549080600801549080600901549080600a01549080600b0160009054906101000a900460ff1690508c565b600581815481106109e557fe5b906000526020600020016000915090505481565b60625481565b600160149054906101000a900460ff1681565b601181565b60686020528060005260406000206000915090508060000154908060010160009054906101000a900473ffffffffffffffffffffffffffffffffffffffff16908060020154908060030154908060040154908060050154908060060154908060070154905088565b601081565b600360009054906101000a900460ff1681565b60666020528060005260406000206000915054906101000a900460ff1681565b60676020528160005260406000208181548110610ad057fe5b9060005260206000209060040201600091509150508060000154908060010160009054906101000a900460ff16908060020154908060030154905084565b60608181548110610b1b57fe5b906000526020600020016000915090505481565b60088181548110610b3c57fe5b9060005260206000209060090201600091509050806000018054600181600116156101000203166002900480601f016020809104026020016040519081016040528092919081815260200182805460018160011615610100020316600290048015610be85780601f10610bbd57610100808354040283529160200191610be8565b820191906000526020600020905b815481529060010190602001808311610bcb57829003601f168201915b5050505050908060010154908060020154908060030154908060040154908060050154908060060154908060070154908060080154905089565b603281565b60635481565b601281565b60618181548110610c3f57fe5b906000526020600020016000915054906101000a900473ffffffffffffffffffffffffffffffffffffffff1681565b60098260038110610c7b57fe5b601c02018160048110610c8a57fe5b60070201600091509150508060000154908060010154908060020154908060030154908060040154908060050154908060060154905087565b60656020528060005260406000206000915090508060000160009054906101000a900460ff16908060010154908060020154908060030154908060040154908060050154908060060154905087565b604b81565b61400081565b600481565b60008054906101000a900473ffffffffffffffffffffffffffffffffffffffff1681565b62030d4081565b6002548156fea2646970667358221220fb3a7318988738418d65a8891e52ad3eb7b79b5623294665da0f98c0a3b322a664736f6c634300060c0033",
  "compiler": {
    "name": "solc",
    "version": "0.6.12+commit.27d51765.Emscripten.clang",
    "optimizer": {
      "enabled": false,
      "runs": 200
    },
    "evmVersion": "petersburg"
  }
}