{
  "fileName": "DarkForestEmpire.sol",
  "contractName": "DarkForestEmpire",
  "source": "//SPDX-License-Identifier: Unlicense\npragma solidity ^0.6.8;\n\nimport \"@nomiclabs/buidler/console.sol\";\nimport \"@openzeppelin/contracts-ethereum-package/contracts/Initializable.sol\";\n\nimport \"./core/DarkForestCore.sol\";\n\ncontract DarkForestEmpire {\n    DarkForestCore gameContract;\n    bool empireInitialized;\n\n    // owner is allowed to add new players\n    address owner;\n\n    // authorized players are allowed to make moves\n    mapping(address => bool) authorizedPlayers;\n\n    modifier onlyOwner() {\n        require(msg.sender == owner, \"caller not owner\");\n        _;\n    }\n\n    modifier onlyAuthorized() {\n        require(authorizedPlayers[msg.sender], \"caller not authorized\");\n        _;\n    }\n\n    // --------- Owner Only Function --------- \\\\\n    function initialize(address _owner, address _gameContract) public {\n        owner = _owner;\n        empireInitialized = false;\n        authorizedPlayers[_owner] = true;\n        gameContract = DarkForestCore(_gameContract);\n    }\n\n    function addAuthorizedPlayer(address _player) public onlyOwner {\n        authorizedPlayers[_player] = true;\n    }\n\n    function removeAuthorizedPlayer(address _player) public onlyOwner {\n        require(_player != owner, \"cant remove owner from authorized player\");\n        authorizedPlayers[_player] = false;\n    }\n\n    // ---------  Player Only Function --------- \\\\\n    function initializePlayer(\n        uint256[2] memory _a,\n        uint256[2][2] memory _b,\n        uint256[2] memory _c,\n        uint256[3] memory _input\n    ) public onlyAuthorized {\n        require(!empireInitialized, \"empire already initialized\");\n        gameContract.initializePlayer(_a, _b, _c, _input);\n        empireInitialized = true;\n    }\n\n    function move(\n        uint256[2] memory _a,\n        uint256[2][2] memory _b,\n        uint256[2] memory _c,\n        uint256[7] memory _input\n    ) public onlyAuthorized {\n        require(empireInitialized, \"empire have not been initialized\");\n        gameContract.move(_a, _b, _c, _input);\n    }\n\n    function upgradePlanet(uint256 _location, uint256 _branch)\n        public\n        onlyAuthorized\n    {\n        require(empireInitialized, \"empire have not been initialized\");\n        gameContract.upgradePlanet(_location, _branch);\n    }\n\n    function refreshPlanet(uint256 _location) public {\n        require(empireInitialized, \"empire have not been initialized\");\n        gameContract.refreshPlanet(_location);\n    }\n}\n",
  "sourcePath": "contracts/DarkForestEmpire.sol",
  "abi": [
    {
      "inputs": [
        {
          "internalType": "address",
          "name": "_player",
          "type": "address"
        }
      ],
      "name": "addAuthorizedPlayer",
      "outputs": [],
      "stateMutability": "nonpayable",
      "type": "function"
    },
    {
      "inputs": [
        {
          "internalType": "address",
          "name": "_owner",
          "type": "address"
        },
        {
          "internalType": "address",
          "name": "_gameContract",
          "type": "address"
        }
      ],
      "name": "initialize",
      "outputs": [],
      "stateMutability": "nonpayable",
      "type": "function"
    },
    {
      "inputs": [
        {
          "internalType": "uint256[2]",
          "name": "_a",
          "type": "uint256[2]"
        },
        {
          "internalType": "uint256[2][2]",
          "name": "_b",
          "type": "uint256[2][2]"
        },
        {
          "internalType": "uint256[2]",
          "name": "_c",
          "type": "uint256[2]"
        },
        {
          "internalType": "uint256[3]",
          "name": "_input",
          "type": "uint256[3]"
        }
      ],
      "name": "initializePlayer",
      "outputs": [],
      "stateMutability": "nonpayable",
      "type": "function"
    },
    {
      "inputs": [
        {
          "internalType": "uint256[2]",
          "name": "_a",
          "type": "uint256[2]"
        },
        {
          "internalType": "uint256[2][2]",
          "name": "_b",
          "type": "uint256[2][2]"
        },
        {
          "internalType": "uint256[2]",
          "name": "_c",
          "type": "uint256[2]"
        },
        {
          "internalType": "uint256[7]",
          "name": "_input",
          "type": "uint256[7]"
        }
      ],
      "name": "move",
      "outputs": [],
      "stateMutability": "nonpayable",
      "type": "function"
    },
    {
      "inputs": [
        {
          "internalType": "uint256",
          "name": "_location",
          "type": "uint256"
        }
      ],
      "name": "refreshPlanet",
      "outputs": [],
      "stateMutability": "nonpayable",
      "type": "function"
    },
    {
      "inputs": [
        {
          "internalType": "address",
          "name": "_player",
          "type": "address"
        }
      ],
      "name": "removeAuthorizedPlayer",
      "outputs": [],
      "stateMutability": "nonpayable",
      "type": "function"
    },
    {
      "inputs": [
        {
          "internalType": "uint256",
          "name": "_location",
          "type": "uint256"
        },
        {
          "internalType": "uint256",
          "name": "_branch",
          "type": "uint256"
        }
      ],
      "name": "upgradePlanet",
      "outputs": [],
      "stateMutability": "nonpayable",
      "type": "function"
    }
  ],
  "bytecode": "0x608060405234801561001057600080fd5b5061112c806100206000396000f3fe608060405234801561001057600080fd5b506004361061007d5760003560e01c80633f324cf31161005b5780633f324cf31461026b578063485cc9551461029957806373a85381146102fd57806378d4ce95146103355761007d565b80630af807781461008257806328ead02e146101e35780632d72900614610227575b600080fd5b6101e160048036036101e081101561009957600080fd5b8101908080604001906002806020026040519081016040528092919082600260200280828437600081840152601f19601f82011690508083019250505050505091929192908060800190600280602002604051908101604052809291906000905b8282101561014e578382604002016002806020026040519081016040528092919082600260200280828437600081840152601f19601f820116905080830192505050505050815260200190600101906100fa565b50505050919291929080604001906002806020026040519081016040528092919082600260200280828437600081840152601f19601f82011690508083019250505050505091929192908060e001906007806020026040519081016040528092919082600760200280828437600081840152601f19601f8201169050808301925050505050509192919290505050610496565b005b610225600480360360208110156101f957600080fd5b81019080803573ffffffffffffffffffffffffffffffffffffffff169060200190929190505050610743565b005b6102696004803603602081101561023d57600080fd5b81019080803573ffffffffffffffffffffffffffffffffffffffff169060200190929190505050610861565b005b6102976004803603602081101561028157600080fd5b8101908080359060200190929190505050610a26565b005b6102fb600480360360408110156102af57600080fd5b81019080803573ffffffffffffffffffffffffffffffffffffffff169060200190929190803573ffffffffffffffffffffffffffffffffffffffff169060200190929190505050610b36565b005b6103336004803603604081101561031357600080fd5b810190808035906020019092919080359060200190929190505050610c2d565b005b610494600480360361016081101561034c57600080fd5b8101908080604001906002806020026040519081016040528092919082600260200280828437600081840152601f19601f82011690508083019250505050505091929192908060800190600280602002604051908101604052809291906000905b82821015610401578382604002016002806020026040519081016040528092919082600260200280828437600081840152601f19601f820116905080830192505050505050815260200190600101906103ad565b50505050919291929080604001906002806020026040519081016040528092919082600260200280828437600081840152601f19601f820116905080830192505050505050919291929080606001906003806020026040519081016040528092919082600360200280828437600081840152601f19601f8201169050808301925050505050509192919290505050610e05565b005b600260003373ffffffffffffffffffffffffffffffffffffffff1673ffffffffffffffffffffffffffffffffffffffff16815260200190815260200160002060009054906101000a900460ff16610555576040517f08c379a00000000000000000000000000000000000000000000000000000000081526004018080602001828103825260158152602001807f63616c6c6572206e6f7420617574686f72697a6564000000000000000000000081525060200191505060405180910390fd5b600060149054906101000a900460ff166105d7576040517f08c379a00000000000000000000000000000000000000000000000000000000081526004018080602001828103825260208152602001807f656d706972652068617665206e6f74206265656e20696e697469616c697a656481525060200191505060405180910390fd5b60008054906101000a900473ffffffffffffffffffffffffffffffffffffffff1673ffffffffffffffffffffffffffffffffffffffff16630af80778858585856040518563ffffffff1660e01b81526004018085600260200280838360005b83811015610651578082015181840152602081019050610636565b505050509050018460026000925b818410156106a55782846020020151600260200280838360005b83811015610694578082015181840152602081019050610679565b50505050905001926001019261065f565b9250505083600260200280838360005b838110156106d05780820151818401526020810190506106b5565b5050505090500182600760200280838360005b838110156106fe5780820151818401526020810190506106e3565b50505050905001945050505050600060405180830381600087803b15801561072557600080fd5b505af1158015610739573d6000803e3d6000fd5b5050505050505050565b600160009054906101000a900473ffffffffffffffffffffffffffffffffffffffff1673ffffffffffffffffffffffffffffffffffffffff163373ffffffffffffffffffffffffffffffffffffffff1614610806576040517f08c379a00000000000000000000000000000000000000000000000000000000081526004018080602001828103825260108152602001807f63616c6c6572206e6f74206f776e65720000000000000000000000000000000081525060200191505060405180910390fd5b6001600260008373ffffffffffffffffffffffffffffffffffffffff1673ffffffffffffffffffffffffffffffffffffffff16815260200190815260200160002060006101000a81548160ff02191690831515021790555050565b600160009054906101000a900473ffffffffffffffffffffffffffffffffffffffff1673ffffffffffffffffffffffffffffffffffffffff163373ffffffffffffffffffffffffffffffffffffffff1614610924576040517f08c379a00000000000000000000000000000000000000000000000000000000081526004018080602001828103825260108152602001807f63616c6c6572206e6f74206f776e65720000000000000000000000000000000081525060200191505060405180910390fd5b600160009054906101000a900473ffffffffffffffffffffffffffffffffffffffff1673ffffffffffffffffffffffffffffffffffffffff168173ffffffffffffffffffffffffffffffffffffffff1614156109cb576040517f08c379a00000000000000000000000000000000000000000000000000000000081526004018080602001828103825260288152602001806110cf6028913960400191505060405180910390fd5b6000600260008373ffffffffffffffffffffffffffffffffffffffff1673ffffffffffffffffffffffffffffffffffffffff16815260200190815260200160002060006101000a81548160ff02191690831515021790555050565b600060149054906101000a900460ff16610aa8576040517f08c379a00000000000000000000000000000000000000000000000000000000081526004018080602001828103825260208152602001807f656d706972652068617665206e6f74206265656e20696e697469616c697a656481525060200191505060405180910390fd5b60008054906101000a900473ffffffffffffffffffffffffffffffffffffffff1673ffffffffffffffffffffffffffffffffffffffff16633f324cf3826040518263ffffffff1660e01b815260040180828152602001915050600060405180830381600087803b158015610b1b57600080fd5b505af1158015610b2f573d6000803e3d6000fd5b5050505050565b81600160006101000a81548173ffffffffffffffffffffffffffffffffffffffff021916908373ffffffffffffffffffffffffffffffffffffffff16021790555060008060146101000a81548160ff0219169083151502179055506001600260008473ffffffffffffffffffffffffffffffffffffffff1673ffffffffffffffffffffffffffffffffffffffff16815260200190815260200160002060006101000a81548160ff021916908315150217905550806000806101000a81548173ffffffffffffffffffffffffffffffffffffffff021916908373ffffffffffffffffffffffffffffffffffffffff1602179055505050565b600260003373ffffffffffffffffffffffffffffffffffffffff1673ffffffffffffffffffffffffffffffffffffffff16815260200190815260200160002060009054906101000a900460ff16610cec576040517f08c379a00000000000000000000000000000000000000000000000000000000081526004018080602001828103825260158152602001807f63616c6c6572206e6f7420617574686f72697a6564000000000000000000000081525060200191505060405180910390fd5b600060149054906101000a900460ff16610d6e576040517f08c379a00000000000000000000000000000000000000000000000000000000081526004018080602001828103825260208152602001807f656d706972652068617665206e6f74206265656e20696e697469616c697a656481525060200191505060405180910390fd5b60008054906101000a900473ffffffffffffffffffffffffffffffffffffffff1673ffffffffffffffffffffffffffffffffffffffff166373a8538183836040518363ffffffff1660e01b81526004018083815260200182815260200192505050600060405180830381600087803b158015610de957600080fd5b505af1158015610dfd573d6000803e3d6000fd5b505050505050565b600260003373ffffffffffffffffffffffffffffffffffffffff1673ffffffffffffffffffffffffffffffffffffffff16815260200190815260200160002060009054906101000a900460ff16610ec4576040517f08c379a00000000000000000000000000000000000000000000000000000000081526004018080602001828103825260158152602001807f63616c6c6572206e6f7420617574686f72697a6564000000000000000000000081525060200191505060405180910390fd5b600060149054906101000a900460ff1615610f47576040517f08c379a000000000000000000000000000000000000000000000000000000000815260040180806020018281038252601a8152602001807f656d7069726520616c726561647920696e697469616c697a656400000000000081525060200191505060405180910390fd5b60008054906101000a900473ffffffffffffffffffffffffffffffffffffffff1673ffffffffffffffffffffffffffffffffffffffff166378d4ce95858585856040518563ffffffff1660e01b81526004018085600260200280838360005b83811015610fc1578082015181840152602081019050610fa6565b505050509050018460026000925b818410156110155782846020020151600260200280838360005b83811015611004578082015181840152602081019050610fe9565b505050509050019260010192610fcf565b9250505083600260200280838360005b83811015611040578082015181840152602081019050611025565b5050505090500182600360200280838360005b8381101561106e578082015181840152602081019050611053565b50505050905001945050505050600060405180830381600087803b15801561109557600080fd5b505af11580156110a9573d6000803e3d6000fd5b505050506001600060146101000a81548160ff0219169083151502179055505050505056fe63616e742072656d6f7665206f776e65722066726f6d20617574686f72697a656420706c61796572a2646970667358221220bdb08190b240a834ea6fb7c0d63946613a52c15c3ddfea5f30f2ab69eb23d7e864736f6c634300060c0033",
  "compiler": {
    "name": "solc",
    "version": "0.6.12+commit.27d51765.Emscripten.clang",
    "optimizer": {
      "enabled": false,
      "runs": 200
    },
    "evmVersion": "petersburg"
  }
}