{
  "fileName": "DarkForestUtils.sol",
  "contractName": "DarkForestUtils",
  "source": "// SPDX-License-Identifier: UNLICENSED\npragma solidity ^0.6.9;\n\n// Libraries\nimport \"./ABDKMath64x64.sol\";\nimport \"./DarkForestTypes.sol\";\n\nlibrary DarkForestUtils {\n    function _calculateByteUInt(\n        bytes memory _b,\n        uint256 _startByte,\n        uint256 _endByte\n    ) public pure returns (uint256 _byteUInt) {\n        for (uint256 i = _startByte; i <= _endByte; i++) {\n            _byteUInt += uint256(uint8(_b[i])) * (256**(_endByte - i));\n        }\n    }\n\n    function _getPlanetLevelAndResource(\n        uint256 _location,\n        uint256 SILVER_RARITY,\n        uint256[] storage planetLevelThresholds,\n        DarkForestTypes.PlanetDefaultStats[] storage planetDefaultStats\n    ) public view returns (uint256, DarkForestTypes.PlanetResource) {\n        bytes memory _b = abi.encodePacked(_location);\n\n        // get the uint value of byte 4 - 6\n        uint256 _planetLevelUInt = _calculateByteUInt(_b, 4, 6);\n        uint256 level;\n\n        // reverse-iterate thresholds and return planet type accordingly\n        for (uint256 i = (planetLevelThresholds.length - 1); i >= 0; i--) {\n            if (_planetLevelUInt < planetLevelThresholds[i]) {\n                level = i;\n                break;\n            }\n        }\n\n        DarkForestTypes.PlanetResource resource;\n\n        if (\n            planetDefaultStats[level].silverGrowth > 0 &&\n            uint256(uint8(_b[10])) * SILVER_RARITY < 256\n        ) {\n            resource = DarkForestTypes.PlanetResource.SILVER;\n        } else {\n            resource = DarkForestTypes.PlanetResource.NONE;\n        }\n\n        return (level, resource);\n    }\n\n    function _getRadius(\n        uint256[] storage initializedPlanetCountByLevel,\n        uint256[] storage cumulativeRarities,\n        uint256 nPlayers,\n        uint256 target4RadiusConstant,\n        uint256 target5RadiusConstant\n    ) public view returns (uint256) {\n        uint256 target4 = 2 *\n            initializedPlanetCountByLevel[4] +\n            nPlayers /\n            5 +\n            target4RadiusConstant;\n        uint256 target5 = nPlayers / 10 + target5RadiusConstant;\n        for (uint256 i = 5; i < initializedPlanetCountByLevel.length; i += 1) {\n            target4 += 2 * initializedPlanetCountByLevel[i];\n            target5 += 2 * initializedPlanetCountByLevel[i];\n        }\n        uint256 targetRadiusSquared4 = (target4 * cumulativeRarities[4] * 100) /\n            314;\n        uint256 targetRadiusSquared5 = (target5 * cumulativeRarities[5] * 100) /\n            314;\n        uint256 r4 = ABDKMath64x64.toUInt(\n            ABDKMath64x64.sqrt(ABDKMath64x64.fromUInt(targetRadiusSquared4))\n        );\n        uint256 r5 = ABDKMath64x64.toUInt(\n            ABDKMath64x64.sqrt(ABDKMath64x64.fromUInt(targetRadiusSquared5))\n        );\n        if (r4 > r5) {\n            return r4;\n        } else {\n            return r5;\n        }\n    }\n}\n",
  "sourcePath": "contracts/core/DarkForestUtils.sol",
  "abi": [
    {
      "inputs": [
        {
          "internalType": "bytes",
          "name": "_b",
          "type": "bytes"
        },
        {
          "internalType": "uint256",
          "name": "_startByte",
          "type": "uint256"
        },
        {
          "internalType": "uint256",
          "name": "_endByte",
          "type": "uint256"
        }
      ],
      "name": "_calculateByteUInt",
      "outputs": [
        {
          "internalType": "uint256",
          "name": "_byteUInt",
          "type": "uint256"
        }
      ],
      "stateMutability": "pure",
      "type": "function"
    }
  ],
  "bytecode": "0x6105e8610026600b82828239805160001a60731461001957fe5b30600052607381538281f3fe730000000000000000000000000000000000000000301460806040526004361061004b5760003560e01c80637ed2b0e814610050578063c30403df14610133578063eb70cb211461019d575b600080fd5b61011d6004803603606081101561006657600080fd5b810190808035906020019064010000000081111561008357600080fd5b82018360208201111561009557600080fd5b803590602001918460018302840111640100000000831117156100b757600080fd5b91908080601f016020809104026020016040519081016040528093929190818152602001838380828437600081840152601f19601f820116905080830192505050505050509192919290803590602001909291908035906020019092919050505061020f565b6040518082815260200191505060405180910390f35b610187600480360360a081101561014957600080fd5b81019080803590602001909291908035906020019092919080359060200190929190803590602001909291908035906020019092919050505061025b565b6040518082815260200191505060405180910390f35b6101e7600480360360808110156101b357600080fd5b81019080803590602001909291908035906020019092919080359060200190929190803590602001909291905050506103c4565b604051808381526020018260018111156101fd57fe5b81526020019250505060405180910390f35b6000808390505b828111610253578083036101000a85828151811061023057fe5b602001015160f81c60f81b60f81c60ff1602820191508080600101915050610216565b509392505050565b600080836005868161026957fe5b048860048154811061027757fe5b906000526020600020015460020201019050600083600a878161029657fe5b040190506000600590505b88805490508110156102f4578881815481106102b957fe5b9060005260206000200154600202830192508881815481106102d757fe5b9060005260206000200154600202820191506001810190506102a1565b50600061013a60648960048154811061030957fe5b90600052602060002001548502028161031e57fe5b049050600061013a60648a60058154811061033557fe5b90600052602060002001548502028161034a57fe5b049050600061036861036361035e856104bb565b6104de565b610511565b67ffffffffffffffff169050600061038f61038a610385856104bb565b6104de565b610511565b67ffffffffffffffff169050808211156103b1578196505050505050506103bb565b8096505050505050505b95945050505050565b60008060608660405160200180828152602001915050604051602081830303815290604052905060006103fa826004600661020f565b9050600080600188805490500390505b600081106104465787818154811061041e57fe5b906000526020600020015483101561043857809150610446565b80806001900391505061040a565b5060008087838154811061045657fe5b90600052602060002090600902016004015411801561049557506101008985600a8151811061048157fe5b602001015160f81c60f81b60f81c60ff1602105b156104a357600190506104a8565b600090505b8181955095505050505094509492505050565b6000677fffffffffffffff8211156104d257600080fd5b604082901b9050919050565b60008082600f0b12156104f057600080fd5b61050a604083600f0b901b68010000000000000000610532565b9050919050565b60008082600f0b121561052357600080fd5b604082600f0b901d9050919050565b60008083141561054557600090506105ac565b6000821161055257600080fd5b5b6001156105ab57600082848161056557fe5b0490508083148061057857508060018401145b1561058657829150506105ac565b6001810183141561059a57809150506105ac565b60018082850101901c925050610553565b5b9291505056fea26469706673582212209a397a19164b52a013a60418bf74c063fba39aea581aa66d95be415d58a9c43964736f6c634300060c0033",
  "compiler": {
    "name": "solc",
    "version": "0.6.12+commit.27d51765.Emscripten.clang",
    "optimizer": {
      "enabled": false,
      "runs": 200
    },
    "evmVersion": "petersburg"
  }
}