{
  "fileName": "DarkForestPlanet.sol",
  "contractName": "DarkForestPlanet",
  "source": "// SPDX-License-Identifier: UNLICENSED\npragma solidity ^0.6.9;\npragma experimental ABIEncoderV2;\n\nimport \"@openzeppelin/contracts-ethereum-package/contracts/math/SafeMath.sol\";\nimport \"./DarkForestTypes.sol\";\nimport \"./DarkForestLazyUpdate.sol\";\n\nlibrary DarkForestPlanet {\n    function isPopCapBoost(uint256 _location) public pure returns (bool) {\n        bytes memory _b = abi.encodePacked(_location);\n        return uint256(uint8(_b[11])) < 16;\n    }\n\n    function isPopGroBoost(uint256 _location) public pure returns (bool) {\n        bytes memory _b = abi.encodePacked(_location);\n        return uint256(uint8(_b[12])) < 16;\n    }\n\n    function isResCapBoost(uint256 _location) public pure returns (bool) {\n        bytes memory _b = abi.encodePacked(_location);\n        return uint256(uint8(_b[13])) < 16;\n    }\n\n    function isResGroBoost(uint256 _location) public pure returns (bool) {\n        bytes memory _b = abi.encodePacked(_location);\n        return uint256(uint8(_b[14])) < 16;\n    }\n\n    function isRangeBoost(uint256 _location) public pure returns (bool) {\n        bytes memory _b = abi.encodePacked(_location);\n        return uint256(uint8(_b[15])) < 16;\n    }\n\n    function _getDecayedPop(\n        uint256 _popMoved,\n        uint256 _maxDist,\n        uint256 _range,\n        uint256 _populationCap\n    ) public pure returns (uint256 _decayedPop) {\n        int128 _scaleInv = ABDKMath64x64.exp_2(\n            ABDKMath64x64.divu(_maxDist, _range)\n        );\n        int128 _bigPlanetDebuff = ABDKMath64x64.divu(_populationCap, 20);\n        int128 _beforeDebuff = ABDKMath64x64.div(\n            ABDKMath64x64.fromUInt(_popMoved),\n            _scaleInv\n        );\n        if (_beforeDebuff > _bigPlanetDebuff) {\n            _decayedPop = ABDKMath64x64.toUInt(\n                ABDKMath64x64.sub(_beforeDebuff, _bigPlanetDebuff)\n            );\n        } else {\n            _decayedPop = 0;\n        }\n    }\n\n    function _createArrival(\n        uint256 _oldLoc,\n        uint256 _newLoc,\n        uint256 _maxDist,\n        uint256 _popMoved,\n        uint256 _silverMoved,\n        uint256 GLOBAL_SPEED_IN_HUNDRETHS,\n        uint256 planetEventsCount,\n        mapping(uint256 => DarkForestTypes.Planet) storage planets,\n        mapping(uint256 => DarkForestTypes.ArrivalData) storage planetArrivals\n    ) internal {\n        // enter the arrival data for event id planetEventsCount\n        DarkForestTypes.Planet memory planet = planets[_oldLoc];\n        uint256 _popArriving = _getDecayedPop(\n            _popMoved,\n            _maxDist,\n            planet.range,\n            planet.populationCap\n        );\n        require(_popArriving > 0, \"Not enough forces to make move\");\n        planetArrivals[planetEventsCount] = DarkForestTypes.ArrivalData({\n            id: planetEventsCount,\n            player: msg.sender,\n            fromPlanet: _oldLoc,\n            toPlanet: _newLoc,\n            popArriving: _popArriving,\n            silverMoved: _silverMoved,\n            departureTime: block.timestamp,\n            arrivalTime: block.timestamp +\n                (_maxDist * 100) /\n                GLOBAL_SPEED_IN_HUNDRETHS\n        });\n    }\n\n    function initializePlanet(\n        DarkForestTypes.Planet storage _planet,\n        DarkForestTypes.PlanetExtendedInfo storage _planetExtendedInfo,\n        DarkForestTypes.PlanetDefaultStats storage _planetDefaultStats,\n        uint256 _perlin,\n        uint256 _version,\n        DarkForestTypes.PlanetType _planetType,\n        DarkForestTypes.PlanetResource _planetResource,\n        uint256 _planetLevel,\n        uint256 _location\n    ) public {\n        _planetExtendedInfo.isInitialized = true;\n        // planet initialize should set the planet to default state, including having the owner be adress 0x0\n        // then it's the responsibility for the mechanics to set the owner to the player\n        _planet.owner = address(0);\n        _planet.range = isRangeBoost(_location)\n            ? _planetDefaultStats.range * 2\n            : _planetDefaultStats.range;\n\n        _planet.populationCap = isPopCapBoost(_location)\n            ? _planetDefaultStats.populationCap * 2\n            : _planetDefaultStats.populationCap;\n\n        _planet.population = _planetType ==\n            DarkForestTypes.PlanetType.TRADING_POST\n            ? 1500000\n            : SafeMath.div(\n                SafeMath.mul(\n                    _planet.populationCap,\n                    _planetDefaultStats.barbarianPercentage\n                ),\n                100\n            );\n\n        _planet.populationGrowth = isPopGroBoost(_location)\n            ? _planetDefaultStats.populationGrowth * 2\n            : _planetDefaultStats.populationGrowth;\n        // TESTING\n        // _planet.populationGrowth *= 100;\n\n        _planet.planetResource = _planetResource;\n\n        _planet.silverCap = isResCapBoost(_location)\n            ? _planetDefaultStats.silverCap * 2\n            : _planetDefaultStats.silverCap;\n        _planet.silverGrowth = 0;\n        if (_planetResource == DarkForestTypes.PlanetResource.SILVER) {\n            _planet.silverGrowth = isResGroBoost(_location)\n                ? _planetDefaultStats.silverGrowth * 2\n                : _planetDefaultStats.silverGrowth;\n            // TESTING\n            // _planet.silverGrowth *= 100;\n        }\n\n        _planet.silver = 0;\n        _planet.silverMax = _planetDefaultStats.silverMax;\n        _planet.planetLevel = _planetLevel;\n\n        _planetExtendedInfo.version = _version;\n        _planetExtendedInfo.perlin = _perlin;\n        _planetExtendedInfo.lastUpdated = block.timestamp;\n        _planetExtendedInfo.upgradeState0 = 0;\n        _planetExtendedInfo.upgradeState1 = 0;\n        _planetExtendedInfo.upgradeState2 = 0;\n    }\n\n    function upgradePlanet(\n        DarkForestTypes.Planet storage _planet,\n        DarkForestTypes.PlanetExtendedInfo storage _planetExtendedInfo,\n        uint256 _branch,\n        DarkForestTypes.PlanetDefaultStats[] storage planetDefaultStats,\n        DarkForestTypes.Upgrade[4][3] storage upgrades\n    ) public {\n        // do checks\n        require(\n            _planet.owner == msg.sender,\n            \"Only owner can perform operation on planets\"\n        );\n        uint256 planetLevel = _planet.planetLevel;\n        require(\n            planetLevel > 0,\n            \"Planet level is not high enough for this upgrade\"\n        );\n        require(_branch < 3, \"Upgrade branch not valid\");\n        uint256 upgradeBranchCurrentLevel;\n        if (_branch == 0) {\n            upgradeBranchCurrentLevel = _planetExtendedInfo.upgradeState0;\n        } else if (_branch == 1) {\n            upgradeBranchCurrentLevel = _planetExtendedInfo.upgradeState1;\n        } else if (_branch == 2) {\n            upgradeBranchCurrentLevel = _planetExtendedInfo.upgradeState2;\n        }\n        require(upgradeBranchCurrentLevel < 4, \"Upgrade branch already maxed\");\n        if (upgradeBranchCurrentLevel == 2) {\n            if (_branch == 0) {\n                require(\n                    _planetExtendedInfo.upgradeState1 < 3 &&\n                        _planetExtendedInfo.upgradeState2 < 3,\n                    \"Can't upgrade a second branch to level 3\"\n                );\n            }\n            if (_branch == 1) {\n                require(\n                    _planetExtendedInfo.upgradeState0 < 3 &&\n                        _planetExtendedInfo.upgradeState2 < 3,\n                    \"Can't upgrade a second branch to level 3\"\n                );\n            }\n            if (_branch == 2) {\n                require(\n                    _planetExtendedInfo.upgradeState0 < 3 &&\n                        _planetExtendedInfo.upgradeState1 < 3,\n                    \"Can't upgrade a second branch to level 3\"\n                );\n            }\n        }\n\n\n            DarkForestTypes.Upgrade memory upgrade\n         = upgrades[_branch][upgradeBranchCurrentLevel];\n        uint256 upgradeCost = (planetDefaultStats[planetLevel].silverCap *\n            upgrade.silverCostMultiplier) / 100;\n        require(\n            _planet.silver >= upgradeCost,\n            \"Insufficient silver to upgrade\"\n        );\n\n        // do upgrade\n        _planet.populationCap =\n            (_planet.populationCap * upgrade.popCapMultiplier) /\n            100;\n        _planet.populationGrowth =\n            (_planet.populationGrowth * upgrade.popGroMultiplier) /\n            100;\n        _planet.silverCap =\n            (_planet.silverCap * upgrade.silverCapMultiplier) /\n            100;\n        _planet.silverGrowth =\n            (_planet.silverGrowth * upgrade.silverGroMultiplier) /\n            100;\n        _planet.silverMax =\n            (_planet.silverMax * upgrade.silverMaxMultiplier) /\n            100;\n        _planet.range = (_planet.range * upgrade.rangeMultiplier) / 100;\n        _planet.silver -= upgradeCost;\n        if (_branch == 0) {\n            _planetExtendedInfo.upgradeState0 += 1;\n        } else if (_branch == 1) {\n            _planetExtendedInfo.upgradeState1 += 1;\n        } else if (_branch == 2) {\n            _planetExtendedInfo.upgradeState2 += 1;\n        }\n    }\n\n    function move(\n        uint256 _oldLoc,\n        uint256 _newLoc,\n        uint256 _maxDist,\n        uint256 _popMoved,\n        uint256 _silverMoved,\n        uint256 GLOBAL_SPEED_IN_HUNDRETHS,\n        uint256 planetEventsCount,\n        mapping(uint256 => DarkForestTypes.Planet) storage planets,\n        mapping(uint256 => DarkForestTypes.PlanetEventMetadata[])\n            storage planetEvents,\n        mapping(uint256 => DarkForestTypes.ArrivalData) storage planetArrivals\n    ) public {\n        require(\n            planets[_oldLoc].owner == msg.sender,\n            \"Only owner can perform operation on planets\"\n        );\n        // we want strict > so that the population can't go to 0\n        require(\n            planets[_oldLoc].population > _popMoved,\n            \"Tried to move more population that what exists\"\n        );\n        require(\n            planets[_oldLoc].silver >= _silverMoved,\n            \"Tried to move more silver than what exists\"\n        );\n\n        // all checks pass. execute move\n        // push the new move into the planetEvents array for _newLoc\n        planetEvents[_newLoc].push(\n            DarkForestTypes.PlanetEventMetadata({\n                id: planetEventsCount,\n                eventType: DarkForestTypes.PlanetEventType.ARRIVAL,\n                timeTrigger: block.timestamp +\n                    (_maxDist * 100) /\n                    GLOBAL_SPEED_IN_HUNDRETHS,\n                timeAdded: block.timestamp\n            })\n        );\n\n        _createArrival(\n            _oldLoc,\n            _newLoc,\n            _maxDist,\n            _popMoved,\n            _silverMoved,\n            GLOBAL_SPEED_IN_HUNDRETHS,\n            planetEventsCount,\n            planets,\n            planetArrivals\n        );\n\n        // subtract ships and silver sent\n        planets[_oldLoc].population -= _popMoved;\n        planets[_oldLoc].silver -= _silverMoved;\n    }\n}\n",
  "sourcePath": "contracts/core/DarkForestPlanet.sol",
  "abi": [
    {
      "inputs": [
        {
          "internalType": "uint256",
          "name": "_popMoved",
          "type": "uint256"
        },
        {
          "internalType": "uint256",
          "name": "_maxDist",
          "type": "uint256"
        },
        {
          "internalType": "uint256",
          "name": "_range",
          "type": "uint256"
        },
        {
          "internalType": "uint256",
          "name": "_populationCap",
          "type": "uint256"
        }
      ],
      "name": "_getDecayedPop",
      "outputs": [
        {
          "internalType": "uint256",
          "name": "_decayedPop",
          "type": "uint256"
        }
      ],
      "stateMutability": "pure",
      "type": "function"
    },
    {
      "inputs": [
        {
          "internalType": "uint256",
          "name": "_location",
          "type": "uint256"
        }
      ],
      "name": "isPopCapBoost",
      "outputs": [
        {
          "internalType": "bool",
          "name": "",
          "type": "bool"
        }
      ],
      "stateMutability": "pure",
      "type": "function"
    },
    {
      "inputs": [
        {
          "internalType": "uint256",
          "name": "_location",
          "type": "uint256"
        }
      ],
      "name": "isPopGroBoost",
      "outputs": [
        {
          "internalType": "bool",
          "name": "",
          "type": "bool"
        }
      ],
      "stateMutability": "pure",
      "type": "function"
    },
    {
      "inputs": [
        {
          "internalType": "uint256",
          "name": "_location",
          "type": "uint256"
        }
      ],
      "name": "isRangeBoost",
      "outputs": [
        {
          "internalType": "bool",
          "name": "",
          "type": "bool"
        }
      ],
      "stateMutability": "pure",
      "type": "function"
    },
    {
      "inputs": [
        {
          "internalType": "uint256",
          "name": "_location",
          "type": "uint256"
        }
      ],
      "name": "isResCapBoost",
      "outputs": [
        {
          "internalType": "bool",
          "name": "",
          "type": "bool"
        }
      ],
      "stateMutability": "pure",
      "type": "function"
    },
    {
      "inputs": [
        {
          "internalType": "uint256",
          "name": "_location",
          "type": "uint256"
        }
      ],
      "name": "isResGroBoost",
      "outputs": [
        {
          "internalType": "bool",
          "name": "",
          "type": "bool"
        }
      ],
      "stateMutability": "pure",
      "type": "function"
    }
  ],
  "bytecode": "0x612cb2610026600b82828239805160001a60731461001957fe5b30600052607381538281f3fe730000000000000000000000000000000000000000301460806040526004361061009d5760003560e01c806390d6ddc21161007057806390d6ddc21461015b57806391e66a711461018b57806399b95839146101bb578063cbd7f5bd146101e4578063e73f4ba8146102145761009d565b806307ffcebf146100a25780634145352d146100cb57806374ebbc14146100fb5780638265fa261461012b575b600080fd5b8180156100ae57600080fd5b506100c960048036038101906100c4919061245d565b61023d565b005b6100e560048036038101906100e091906123fa565b6104b0565b6040516100f29190612aa2565b60405180910390f35b610115600480360381019061011091906123d1565b61052d565b6040516101229190612925565b60405180910390f35b610145600480360381019061014091906123d1565b61057c565b6040516101529190612925565b60405180910390f35b610175600480360381019061017091906123d1565b6105cb565b6040516101829190612925565b60405180910390f35b6101a560048036038101906101a091906123d1565b61061a565b6040516101b29190612925565b60405180910390f35b8180156101c757600080fd5b506101e260048036038101906101dd9190612294565b610669565b005b6101fe60048036038101906101f991906123d1565b61088f565b60405161020b9190612925565b60405180910390f35b81801561022057600080fd5b5061023b6004803603810190610236919061235a565b6108de565b005b3373ffffffffffffffffffffffffffffffffffffffff168360008c815260200190815260200160002060000160009054906101000a900473ffffffffffffffffffffffffffffffffffffffff1673ffffffffffffffffffffffffffffffffffffffff16146102e0576040517f08c379a00000000000000000000000000000000000000000000000000000000081526004016102d7906129e2565b60405180910390fd5b868360008c81526020019081526020016000206002015411610337576040517f08c379a000000000000000000000000000000000000000000000000000000000815260040161032e90612a42565b60405180910390fd5b858360008c815260200190815260200160002060080154101561038f576040517f08c379a000000000000000000000000000000000000000000000000000000000815260040161038690612962565b60405180910390fd5b8160008a815260200190815260200160002060405180608001604052808681526020016000808111156103be57fe5b81526020018760648c02816103cf57fe5b04420181526020014281525090806001815401808255809150506001900390600052602060002090600402016000909190919091506000820151816000015560208201518160010160006101000a81548160ff0219169083600081111561043257fe5b02179055506040820151816002015560608201518160030155505061045e8a8a8a8a8a8a8a8a89610dcc565b868360008c815260200190815260200160002060020160008282540392505081905550858360008c81526020019081526020016000206008016000828254039250508190555050505050505050505050565b6000806104c56104c08686611066565b6110ce565b905060006104d4846014611066565b905060006104ea6104e489611cd9565b84611cfc565b905081600f0b81600f0b131561051d5761050c6105078284611d7f565b611de6565b67ffffffffffffffff169350610522565b600093505b505050949350505050565b6000606082604051602001610542919061290a565b6040516020818303038152906040529050601081600d8151811061056257fe5b602001015160f81c60f81b60f81c60ff1610915050919050565b6000606082604051602001610591919061290a565b6040516020818303038152906040529050601081600f815181106105b157fe5b602001015160f81c60f81b60f81c60ff1610915050919050565b60006060826040516020016105e0919061290a565b6040516020818303038152906040529050601081600b8151811061060057fe5b602001015160f81c60f81b60f81c60ff1610915050919050565b600060608260405160200161062f919061290a565b6040516020818303038152906040529050601081600c8151811061064f57fe5b602001015160f81c60f81b60f81c60ff1610915050919050565b60018860000160006101000a81548160ff02191690831515021790555060008960000160006101000a81548173ffffffffffffffffffffffffffffffffffffffff021916908373ffffffffffffffffffffffffffffffffffffffff1602179055506106d38161057c565b6106e15786600301546106ea565b60028760030154025b89600101819055506106fb816105cb565b610709578660010154610712565b60028760010154025b896003018190555060018081111561072657fe5b84600181111561073257fe5b146107585761075361074c8a600301548960070154611e07565b6064611e77565b61075d565b6216e3605b896002018190555061076e8161061a565b61077c578660020154610785565b60028760020154025b8960040181905550828960050160006101000a81548160ff021916908360018111156107ad57fe5b02179055506107bb8161052d565b6107c95786600501546107d2565b60028760050154025b8960060181905550600089600701819055506001808111156107f057fe5b8360018111156107fc57fe5b141561082b5761080b8161088f565b610819578660040154610822565b60028760040154025b89600701819055505b60008960080181905550866006015489600901819055508189600a0181905550848860010181905550858860030181905550428860020181905550600088600401819055506000886005018190555060008860060181905550505050505050505050565b60006060826040516020016108a4919061290a565b6040516020818303038152906040529050601081600e815181106108c457fe5b602001015160f81c60f81b60f81c60ff1610915050919050565b3373ffffffffffffffffffffffffffffffffffffffff168560000160009054906101000a900473ffffffffffffffffffffffffffffffffffffffff1673ffffffffffffffffffffffffffffffffffffffff1614610970576040517f08c379a0000000000000000000000000000000000000000000000000000000008152600401610967906129e2565b60405180910390fd5b600085600a01549050600081116109bc576040517f08c379a00000000000000000000000000000000000000000000000000000000081526004016109b390612a82565b60405180910390fd5b600384106109ff576040517f08c379a00000000000000000000000000000000000000000000000000000000081526004016109f6906129a2565b60405180910390fd5b600080851415610a155785600401549050610a3d565b6001851415610a2a5785600501549050610a3c565b6002851415610a3b57856006015490505b5b5b60048110610a80576040517f08c379a0000000000000000000000000000000000000000000000000000000008152600401610a7790612a22565b60405180910390fd5b6002811415610bad576000851415610aea5760038660050154108015610aaa575060038660060154105b610ae9576040517f08c379a0000000000000000000000000000000000000000000000000000000008152600401610ae090612a62565b60405180910390fd5b5b6001851415610b4b5760038660040154108015610b0b575060038660060154105b610b4a576040517f08c379a0000000000000000000000000000000000000000000000000000000008152600401610b4190612a62565b60405180910390fd5b5b6002851415610bac5760038660040154108015610b6c575060038660050154105b610bab576040517f08c379a0000000000000000000000000000000000000000000000000000000008152600401610ba290612a62565b60405180910390fd5b5b5b610bb56120e3565b838660038110610bc157fe5b601c02018260048110610bd057fe5b600702016040518060e00160405290816000820154815260200160018201548152602001600282015481526020016003820154815260200160048201548152602001600582015481526020016006820154815250509050600060648260c00151878681548110610c3c57fe5b9060005260206000209060090201600501540281610c5657fe5b0490508089600801541015610ca0576040517f08c379a0000000000000000000000000000000000000000000000000000000008152600401610c97906129c2565b60405180910390fd5b606482600001518a600301540281610cb457fe5b048960030181905550606482602001518a600401540281610cd157fe5b048960040181905550606482604001518a600601540281610cee57fe5b048960060181905550606482606001518a600701540281610d0b57fe5b048960070181905550606482608001518a600901540281610d2857fe5b04896009018190555060648260a001518a600101540281610d4557fe5b0489600101819055508089600801600082825403925050819055506000871415610d815760018860040160008282540192505081905550610dc1565b6001871415610da25760018860050160008282540192505081905550610dc0565b6002871415610dbf57600188600601600082825401925050819055505b5b5b505050505050505050565b610dd4612120565b8260008b8152602001908152602001600020604051806101800160405290816000820160009054906101000a900473ffffffffffffffffffffffffffffffffffffffff1673ffffffffffffffffffffffffffffffffffffffff1673ffffffffffffffffffffffffffffffffffffffff168152602001600182015481526020016002820154815260200160038201548152602001600482015481526020016005820160009054906101000a900460ff166001811115610e8e57fe5b6001811115610e9957fe5b815260200160068201548152602001600782015481526020016008820154815260200160098201548152602001600a8201548152602001600b820160009054906101000a900460ff166001811115610eed57fe5b6001811115610ef857fe5b8152505090506000610f14888a846020015185606001516104b0565b905060008111610f59576040517f08c379a0000000000000000000000000000000000000000000000000000000008152600401610f5090612982565b60405180910390fd5b6040518061010001604052808681526020013373ffffffffffffffffffffffffffffffffffffffff1681526020018c81526020018b81526020018281526020018881526020014281526020018760648c0281610fb157fe5b0442018152508360008781526020019081526020016000206000820151816000015560208201518160010160006101000a81548173ffffffffffffffffffffffffffffffffffffffff021916908373ffffffffffffffffffffffffffffffffffffffff16021790555060408201518160020155606082015181600301556080820151816004015560a0820151816005015560c0820151816006015560e082015181600701559050505050505050505050505050565b60008082141561107557600080fd5b60006110818484611ec1565b90506f7fffffffffffffffffffffffffffffff6fffffffffffffffffffffffffffffffff16816fffffffffffffffffffffffffffffffff1611156110c457600080fd5b8091505092915050565b60006840000000000000000082600f0b126110e857600080fd5b7fffffffffffffffffffffffffffffffffffffffffffffffc0000000000000000082600f0b121561111c5760009050611cd4565b60006f80000000000000000000000000000000905060006780000000000000008416600f0b131561116257608070016a09e667f3bcc908b2fb1366ea957d3e8202901c90505b60006740000000000000008416600f0b13156111935760807001306fe0a31b7152de8d5a46305c85edec8202901c90505b60006720000000000000008416600f0b13156111c45760807001172b83c7d517adcdf7c8c50eb14a791f8202901c90505b60006710000000000000008416600f0b13156111f557608070010b5586cf9890f6298b92b71842a983638202901c90505b60006708000000000000008416600f0b13156112265760807001059b0d31585743ae7c548eb68ca417fd8202901c90505b60006704000000000000008416600f0b1315611257576080700102c9a3e778060ee6f7caca4f7a29bde88202901c90505b60006702000000000000008416600f0b131561128857608070010163da9fb33356d84a66ae336dcdfa3f8202901c90505b60006701000000000000008416600f0b13156112b9576080700100b1afa5abcbed6129ab13ec11dc95438202901c90505b600066800000000000008416600f0b13156112e957608070010058c86da1c09ea1ff19d294cf2f679b8202901c90505b600066400000000000008416600f0b13156113195760807001002c605e2e8cec506d21bfc89a23a00f8202901c90505b600066200000000000008416600f0b1315611349576080700100162f3904051fa128bca9c55c31e5df8202901c90505b600066100000000000008416600f0b13156113795760807001000b175effdc76ba38e31671ca9397258202901c90505b600066080000000000008416600f0b13156113a9576080700100058ba01fb9f96d6cacd4b180917c3d8202901c90505b600066040000000000008416600f0b13156113d957608070010002c5cc37da9491d0985c348c68e7b38202901c90505b600066020000000000008416600f0b13156114095760807001000162e525ee054754457d59952920268202901c90505b600066010000000000008416600f0b131561143957608070010000b17255775c040618bf4a4ade83fc8202901c90505b6000658000000000008416600f0b13156114685760807001000058b91b5bc9ae2eed81e9b7d4cfab8202901c90505b6000654000000000008416600f0b1315611497576080700100002c5c89d5ec6ca4d7c8acc017b7c98202901c90505b6000652000000000008416600f0b13156114c657608070010000162e43f4f831060e02d839a9d16d8202901c90505b6000651000000000008416600f0b13156114f5576080700100000b1721bcfc99d9f890ea069117638202901c90505b6000650800000000008416600f0b131561152457608070010000058b90cf1e6d97f9ca14dbcc16288202901c90505b6000650400000000008416600f0b13156115535760807001000002c5c863b73f016468f6bac5ca2b8202901c90505b6000650200000000008416600f0b1315611582576080700100000162e430e5a18f6119e3c02282a58202901c90505b6000650100000000008416600f0b13156115b15760807001000000b1721835514b86e6d96efd1bfe8202901c90505b60006480000000008416600f0b13156115df576080700100000058b90c0b48c6be5df846c5b2ef8202901c90505b60006440000000008416600f0b131561160d57608070010000002c5c8601cc6b9e94213c72737a8202901c90505b60006420000000008416600f0b131561163b5760807001000000162e42fff037df38aa2b219f068202901c90505b60006410000000008416600f0b131561166957608070010000000b17217fba9c739aa5819f44f98202901c90505b60006408000000008416600f0b13156116975760807001000000058b90bfcdee5acd3c1cedc8238202901c90505b60006404000000008416600f0b13156116c5576080700100000002c5c85fe31f35a6a30da1be508202901c90505b60006402000000008416600f0b13156116f357608070010000000162e42ff0999ce3541b9fffcf8202901c90505b60006401000000008416600f0b1315611721576080700100000000b17217f80f4ef5aadda455548202901c90505b600063800000008416600f0b131561174e57608070010000000058b90bfbf8479bd5a81b51ad8202901c90505b600063400000008416600f0b131561177b5760807001000000002c5c85fdf84bd62ae30a74cc8202901c90505b600063200000008416600f0b13156117a8576080700100000000162e42fefb2fed257559bdaa8202901c90505b600063100000008416600f0b13156117d55760807001000000000b17217f7d5a7716bba4a9ae8202901c90505b600063080000008416600f0b1315611802576080700100000000058b90bfbe9ddbac5e109cce8202901c90505b600063040000008416600f0b131561182f57608070010000000002c5c85fdf4b15de6f17eb0d8202901c90505b600063020000008416600f0b131561185c5760807001000000000162e42fefa494f1478fde058202901c90505b600063010000008416600f0b131561188957608070010000000000b17217f7d20cf927c8e94c8202901c90505b6000628000008416600f0b13156118b55760807001000000000058b90bfbe8f71cb4e4b33d8202901c90505b6000624000008416600f0b13156118e1576080700100000000002c5c85fdf477b662b269458202901c90505b6000622000008416600f0b131561190d57608070010000000000162e42fefa3ae53369388c8202901c90505b6000621000008416600f0b1315611939576080700100000000000b17217f7d1d351a389d408202901c90505b6000620800008416600f0b131561196557608070010000000000058b90bfbe8e8b2d3d4ede8202901c90505b6000620400008416600f0b13156119915760807001000000000002c5c85fdf4741bea6e77e8202901c90505b6000620200008416600f0b13156119bd576080700100000000000162e42fefa39fe95583c28202901c90505b6000620100008416600f0b13156119e95760807001000000000000b17217f7d1cfb72b45e18202901c90505b60006180008416600f0b1315611a14576080700100000000000058b90bfbe8e7cc35c3f08202901c90505b60006140008416600f0b1315611a3f57608070010000000000002c5c85fdf473e242ea388202901c90505b60006120008416600f0b1315611a6a5760807001000000000000162e42fefa39f02b772c8202901c90505b60006110008416600f0b1315611a9557608070010000000000000b17217f7d1cf7d83c1a8202901c90505b60006108008416600f0b1315611ac05760807001000000000000058b90bfbe8e7bdcbe2e8202901c90505b60006104008416600f0b1315611aeb576080700100000000000002c5c85fdf473dea871f8202901c90505b60006102008416600f0b1315611b1657608070010000000000000162e42fefa39ef44d918202901c90505b60006101008416600f0b1315611b41576080700100000000000000b17217f7d1cf79e9498202901c90505b600060808416600f0b1315611b6b57608070010000000000000058b90bfbe8e7bce5448202901c90505b600060408416600f0b1315611b955760807001000000000000002c5c85fdf473de6eca8202901c90505b600060208416600f0b1315611bbf576080700100000000000000162e42fefa39ef366f8202901c90505b600060108416600f0b1315611be95760807001000000000000000b17217f7d1cf79afa8202901c90505b600060088416600f0b1315611c13576080700100000000000000058b90bfbe8e7bcd6d8202901c90505b600060048416600f0b1315611c3d57608070010000000000000002c5c85fdf473de6b28202901c90505b600060028416600f0b1315611c675760807001000000000000000162e42fefa39ef3588202901c90505b600060018416600f0b1315611c9157608070010000000000000000b17217f7d1cf79ab8202901c90505b604083600f0b901d603f03600f0b816000821215611cab57fe5b901c90506f7fffffffffffffffffffffffffffffff600f0b811115611ccf57600080fd5b809150505b919050565b6000677fffffffffffffff821115611cf057600080fd5b604082901b9050919050565b60008082600f0b1415611d0e57600080fd5b600082600f0b604085600f0b901b81611d2357fe5b0590507fffffffffffffffffffffffffffffffff80000000000000000000000000000000600f0b8112158015611d6c57506f7fffffffffffffffffffffffffffffff600f0b8113155b611d7557600080fd5b8091505092915050565b60008082600f0b84600f0b0390507fffffffffffffffffffffffffffffffff80000000000000000000000000000000600f0b8112158015611dd357506f7fffffffffffffffffffffffffffffff600f0b8113155b611ddc57600080fd5b8091505092915050565b60008082600f0b1215611df857600080fd5b604082600f0b901d9050919050565b600080831415611e1a5760009050611e71565b6000828402905082848281611e2b57fe5b0414611e6c576040517f08c379a0000000000000000000000000000000000000000000000000000000008152600401611e6390612a02565b60405180910390fd5b809150505b92915050565b6000611eb983836040518060400160405280601a81526020017f536166654d6174683a206469766973696f6e206279207a65726f000000000000815250612082565b905092915050565b600080821415611ed057600080fd5b600077ffffffffffffffffffffffffffffffffffffffffffffffff8411611f065782604085901b81611efe57fe5b04905061205b565b600060c09050600060c086901c90506401000000008110611f2f57602081901c90506020820191505b620100008110611f4757601081901c90506010820191505b6101008110611f5e57600881901c90506008820191505b60108110611f7457600481901c90506004820191505b60048110611f8a57600281901c90506002820191505b60028110611f99576001820191505b600160bf830360018703901c018260ff0387901b81611fb457fe5b0492506fffffffffffffffffffffffffffffffff831115611fd457600080fd5b6000608086901c8402905060006fffffffffffffffffffffffffffffffff871685029050600060c089901c9050600060408a901b905082811015612019576001820391505b8281039050608084901b925082811015612034576001820391505b8281039050608084901c821461204657fe5b88818161204f57fe5b04870196505050505050505b6fffffffffffffffffffffffffffffffff81111561207857600080fd5b8091505092915050565b600080831182906120c9576040517f08c379a00000000000000000000000000000000000000000000000000000000081526004016120c09190612940565b60405180910390fd5b5060008385816120d557fe5b049050809150509392505050565b6040518060e00160405280600081526020016000815260200160008152602001600081526020016000815260200160008152602001600081525090565b604051806101800160405280600073ffffffffffffffffffffffffffffffffffffffff168152602001600081526020016000815260200160008152602001600081526020016000600181111561217257fe5b81526020016000815260200160008152602001600081526020016000815260200160008152602001600060018111156121a757fe5b81525090565b6000813590506121bc81612b8d565b92915050565b6000813590506121d181612ba4565b92915050565b6000813590506121e681612bbb565b92915050565b6000813590506121fb81612bcb565b92915050565b60008135905061221081612bdb565b92915050565b60008135905061222581612bf2565b92915050565b60008135905061223a81612c09565b92915050565b60008135905061224f81612c20565b92915050565b60008135905061226481612c37565b92915050565b60008135905061227981612c4e565b92915050565b60008135905061228e81612c65565b92915050565b60008060008060008060008060006101208a8c0312156122b357600080fd5b60006122c18c828d0161226a565b99505060206122d28c828d01612255565b98505060406122e38c828d01612240565b97505060606122f48c828d0161227f565b96505060806123058c828d0161227f565b95505060a06123168c828d016121ec565b94505060c06123278c828d016121d7565b93505060e06123388c828d0161227f565b92505061010061234a8c828d0161227f565b9150509295985092959850929598565b600080600080600060a0868803121561237257600080fd5b60006123808882890161226a565b955050602061239188828901612255565b94505060406123a28882890161227f565b93505060606123b3888289016121c2565b92505060806123c4888289016121ad565b9150509295509295909350565b6000602082840312156123e357600080fd5b60006123f18482850161227f565b91505092915050565b6000806000806080858703121561241057600080fd5b600061241e8782880161227f565b945050602061242f8782880161227f565b93505060406124408782880161227f565b92505060606124518782880161227f565b91505092959194509250565b6000806000806000806000806000806101408b8d03121561247d57600080fd5b600061248b8d828e0161227f565b9a5050602061249c8d828e0161227f565b99505060406124ad8d828e0161227f565b98505060606124be8d828e0161227f565b97505060806124cf8d828e0161227f565b96505060a06124e08d828e0161227f565b95505060c06124f18d828e0161227f565b94505060e06125028d828e0161222b565b9350506101006125148d828e01612201565b9250506101206125268d828e01612216565b9150509295989b9194979a5092959850565b61254181612aed565b82525050565b600061255282612abd565b61255c8185612ac8565b935061256c818560208601612b3f565b61257581612b7c565b840191505092915050565b600061258d602a83612ac8565b91507f547269656420746f206d6f7665206d6f72652073696c766572207468616e207760008301527f68617420657869737473000000000000000000000000000000000000000000006020830152604082019050919050565b60006125f3601e83612ac8565b91507f4e6f7420656e6f75676820666f7263657320746f206d616b65206d6f766500006000830152602082019050919050565b6000612633601883612ac8565b91507f55706772616465206272616e6368206e6f742076616c696400000000000000006000830152602082019050919050565b6000612673601e83612ac8565b91507f496e73756666696369656e742073696c76657220746f207570677261646500006000830152602082019050919050565b60006126b3602b83612ac8565b91507f4f6e6c79206f776e65722063616e20706572666f726d206f7065726174696f6e60008301527f206f6e20706c616e6574730000000000000000000000000000000000000000006020830152604082019050919050565b6000612719602183612ac8565b91507f536166654d6174683a206d756c7469706c69636174696f6e206f766572666c6f60008301527f77000000000000000000000000000000000000000000000000000000000000006020830152604082019050919050565b600061277f601c83612ac8565b91507f55706772616465206272616e636820616c7265616479206d61786564000000006000830152602082019050919050565b60006127bf602e83612ac8565b91507f547269656420746f206d6f7665206d6f726520706f70756c6174696f6e20746860008301527f61742077686174206578697374730000000000000000000000000000000000006020830152604082019050919050565b6000612825602883612ac8565b91507f43616e277420757067726164652061207365636f6e64206272616e636820746f60008301527f206c6576656c20330000000000000000000000000000000000000000000000006020830152604082019050919050565b600061288b603083612ac8565b91507f506c616e6574206c6576656c206973206e6f74206869676820656e6f7567682060008301527f666f7220746869732075706772616465000000000000000000000000000000006020830152604082019050919050565b6128ed81612b35565b82525050565b6129046128ff82612b35565b612b72565b82525050565b600061291682846128f3565b60208201915081905092915050565b600060208201905061293a6000830184612538565b92915050565b6000602082019050818103600083015261295a8184612547565b905092915050565b6000602082019050818103600083015261297b81612580565b9050919050565b6000602082019050818103600083015261299b816125e6565b9050919050565b600060208201905081810360008301526129bb81612626565b9050919050565b600060208201905081810360008301526129db81612666565b9050919050565b600060208201905081810360008301526129fb816126a6565b9050919050565b60006020820190508181036000830152612a1b8161270c565b9050919050565b60006020820190508181036000830152612a3b81612772565b9050919050565b60006020820190508181036000830152612a5b816127b2565b9050919050565b60006020820190508181036000830152612a7b81612818565b9050919050565b60006020820190508181036000830152612a9b8161287e565b9050919050565b6000602082019050612ab760008301846128e4565b92915050565b600081519050919050565b600082825260208201905092915050565b6000819050919050565b6000819050919050565b60008115159050919050565b6000819050919050565b6000819050919050565b6000819050919050565b6000819050919050565b6000819050919050565b6000819050919050565b6000819050919050565b60005b83811015612b5d578082015181840152602081019050612b42565b83811115612b6c576000848401525b50505050565b6000819050919050565b6000601f19601f8301169050919050565b612b9681612ad9565b8114612ba157600080fd5b50565b612bad81612ae3565b8114612bb857600080fd5b50565b60028110612bc857600080fd5b50565b60028110612bd857600080fd5b50565b612be481612af9565b8114612bef57600080fd5b50565b612bfb81612b03565b8114612c0657600080fd5b50565b612c1281612b0d565b8114612c1d57600080fd5b50565b612c2981612b17565b8114612c3457600080fd5b50565b612c4081612b21565b8114612c4b57600080fd5b50565b612c5781612b2b565b8114612c6257600080fd5b50565b612c6e81612b35565b8114612c7957600080fd5b5056fea2646970667358221220559b851c2490be4e9171f7e3c4310b54cf7dc173a202ac76b641932f0592e81864736f6c634300060c0033",
  "compiler": {
    "name": "solc",
    "version": "0.6.12+commit.27d51765.Emscripten.clang",
    "optimizer": {
      "enabled": false,
      "runs": 200
    },
    "evmVersion": "petersburg"
  }
}