{
  "fileName": "DarkForestCore.sol",
  "contractName": "DarkForestCore",
  "source": "// SPDX-License-Identifier: UNLICENSED\npragma solidity ^0.6.9;\npragma experimental ABIEncoderV2;\n\n// Import base Initializable contract\nimport \"@openzeppelin/contracts-ethereum-package/contracts/Initializable.sol\";\nimport \"@openzeppelin/contracts-ethereum-package/contracts/math/SafeMath.sol\";\nimport \"@openzeppelin/contracts-ethereum-package/contracts/math/Math.sol\";\nimport \"./Verifier.sol\";\nimport \"./DarkForestStorageV1.sol\";\nimport \"./DarkForestUtils.sol\";\nimport \"./DarkForestPlanet.sol\";\nimport \"./DarkForestLazyUpdate.sol\";\nimport \"./DarkForestInitialize.sol\";\n\n// .______       _______     ___       _______  .___  ___.  _______\n// |   _  \\     |   ____|   /   \\     |       \\ |   \\/   | |   ____|\n// |  |_)  |    |  |__     /  ^  \\    |  .--.  ||  \\  /  | |  |__\n// |      /     |   __|   /  /_\\  \\   |  |  |  ||  |\\/|  | |   __|\n// |  |\\  \\----.|  |____ /  _____  \\  |  '--'  ||  |  |  | |  |____\n// | _| `._____||_______/__/     \\__\\ |_______/ |__|  |__| |_______|\n//\n// READ THIS FIRST BEFORE EDITING ANYTHING IN THIS FILE:\n// https://docs.openzeppelin.com/learn/upgrading-smart-contracts#limitations-of-contract-upgrades\n//\n// DO NOT ADD ANY STORAGE VARIABLES IN THIS FILE\n// IT SHOULD BELONG AT STORAGE CONTRACTS\n// ADDING STORAGE VARIABLES HERE WI LL BLOCK ANY STORAGE CONTRACTS FROM EVER\n// ADDING THEIR OWN VARIABLES EVER AGAIN.\n\ncontract DarkForestCore is Initializable, DarkForestStorageV1 {\n    using ABDKMath64x64 for *;\n    using SafeMath for *;\n    using Math for uint256;\n\n    event PlayerInitialized(address player, uint256 loc);\n    event ArrivalQueued(uint256 arrivalId);\n    event PlanetUpgraded(uint256 loc);\n\n    function initialize(\n        address _adminAddress,\n        address payable _whitelistAddress,\n        bool _disableZKCheck\n    ) public initializer {\n        adminAddress = _adminAddress;\n        whitelist = Whitelist(_whitelistAddress);\n\n        paused = false;\n\n        VERSION = 1;\n        DISABLE_ZK_CHECK = _disableZKCheck;\n\n        gameEndTimestamp = 1697464000;\n        target4RadiusConstant = 50;\n        target5RadiusConstant = 12;\n\n        planetTypeThresholds = [65536, 0];\n        planetLevelThresholds = [\n            16777216,\n            4194256,\n            1048516,\n            262081,\n            65472,\n            16320,\n            4032,\n            960\n        ];\n\n        DarkForestInitialize.initializeDefaults(planetDefaultStats);\n        DarkForestInitialize.initializeUpgrades(upgrades);\n\n        initializedPlanetCountByLevel = [0, 0, 0, 0, 0, 0, 0, 0];\n        for (uint256 i = 0; i < planetLevelThresholds.length; i += 1) {\n            cumulativeRarities.push(\n                (2**24 / planetLevelThresholds[i]) * PLANET_RARITY\n            );\n        }\n\n        _updateWorldRadius();\n    }\n\n    //////////////////////\n    /// ACCESS CONTROL ///\n    //////////////////////\n    modifier onlyAdmin() {\n        require(msg.sender == adminAddress, \"Sender is not a game master\");\n        _;\n    }\n\n    modifier onlyWhitelisted() {\n        require(\n            whitelist.isWhitelisted(msg.sender),\n            \"Player is not whitelisted\"\n        );\n        _;\n    }\n\n    modifier notPaused() {\n        require(!paused, \"Game is paused\");\n        _;\n    }\n\n    modifier notEnded() {\n        require(block.timestamp < gameEndTimestamp, \"Game have ended\");\n        _;\n    }\n\n    function changeAdmin(address _newAdmin) public onlyAdmin {\n        require(_newAdmin != address(0), \"newOwner cannot be 0x0\");\n        adminAddress = _newAdmin;\n    }\n\n    /////////////////////////////\n    /// Administrative Engine ///\n    /////////////////////////////\n    function pause() public onlyAdmin {\n        require(!paused, \"Game is already paused\");\n        paused = true;\n    }\n\n    function unpause() public onlyAdmin {\n        require(paused, \"Game is already unpaused\");\n        paused = false;\n    }\n\n    function changeGameEndTime(uint256 _newGameEnd) public onlyAdmin {\n        gameEndTimestamp = _newGameEnd;\n    }\n\n    function changeTarget4RadiusConstant(uint256 _newConstant)\n        public\n        onlyAdmin\n    {\n        target4RadiusConstant = _newConstant;\n    }\n\n    function changeTarget5RadiusConstant(uint256 _newConstant)\n        public\n        onlyAdmin\n    {\n        target5RadiusConstant = _newConstant;\n    }\n\n    //////////////\n    /// Helper ///\n    //////////////\n\n    // Public helper getters\n    function getNPlanets() public view returns (uint256) {\n        return planetIds.length;\n    }\n\n    function bulkGetPlanetIds(uint256 startIdx, uint256 endIdx)\n        public\n        view\n        returns (uint256[] memory ret)\n    {\n        // return slice of planetIds array from startIdx through endIdx - 1\n        ret = new uint256[](endIdx - startIdx);\n        for (uint256 i = startIdx; i < endIdx; i++) {\n            ret[i - startIdx] = planetIds[i];\n        }\n    }\n\n    function bulkGetPlanets(uint256 startIdx, uint256 endIdx)\n        public\n        view\n        returns (DarkForestTypes.Planet[] memory ret)\n    {\n        // return array of planets corresponding to planetIds[startIdx] through planetIds[endIdx - 1]\n        ret = new DarkForestTypes.Planet[](endIdx - startIdx);\n        for (uint256 i = startIdx; i < endIdx; i++) {\n            ret[i - startIdx] = planets[planetIds[i]];\n        }\n    }\n\n    function bulkGetPlanetsExtendedInfo(uint256 startIdx, uint256 endIdx)\n        public\n        view\n        returns (DarkForestTypes.PlanetExtendedInfo[] memory ret)\n    {\n        // return array of planets corresponding to planetIds[startIdx] through planetIds[endIdx - 1]\n        ret = new DarkForestTypes.PlanetExtendedInfo[](endIdx - startIdx);\n        for (uint256 i = startIdx; i < endIdx; i++) {\n            ret[i - startIdx] = planetsExtendedInfo[planetIds[i]];\n        }\n    }\n\n    function getNPlayers() public view returns (uint256) {\n        return playerIds.length;\n    }\n\n    function bulkGetPlayers(uint256 startIdx, uint256 endIdx)\n        public\n        view\n        returns (address[] memory ret)\n    {\n        // return slice of players array from startIdx through endIdx - 1\n        ret = new address[](endIdx - startIdx);\n        for (uint256 i = startIdx; i < endIdx; i++) {\n            ret[i - startIdx] = playerIds[i];\n        }\n    }\n\n    function getPlanetLevelThresholds() public view returns (uint256[] memory) {\n        return planetLevelThresholds;\n    }\n\n    function getPlanetTypeThresholds() public view returns (uint256[] memory) {\n        return planetTypeThresholds;\n    }\n\n    function getPlanetCumulativeRarities()\n        public\n        view\n        returns (uint256[] memory)\n    {\n        return cumulativeRarities;\n    }\n\n    function getPlanetArrivals(uint256 _location)\n        public\n        view\n        returns (DarkForestTypes.ArrivalData[] memory ret)\n    {\n        uint256 arrivalCount = 0;\n        for (uint256 i = 0; i < planetEvents[_location].length; i += 1) {\n            if (\n                planetEvents[_location][i].eventType ==\n                DarkForestTypes.PlanetEventType.ARRIVAL\n            ) {\n                arrivalCount += 1;\n            }\n        }\n        ret = new DarkForestTypes.ArrivalData[](arrivalCount);\n        uint256 count = 0;\n        for (uint256 i = 0; i < planetEvents[_location].length; i += 1) {\n            if (\n                planetEvents[_location][i].eventType ==\n                DarkForestTypes.PlanetEventType.ARRIVAL\n            ) {\n                ret[count] = planetArrivals[planetEvents[_location][i].id];\n                count++;\n            }\n        }\n    }\n\n    function bulkGetPlanetArrivals(uint256 startIdx, uint256 endIdx)\n        public\n        view\n        returns (DarkForestTypes.ArrivalData[][] memory)\n    {\n        // return array of planets corresponding to planetIds[startIdx] through planetIds[endIdx - 1]\n\n\n            DarkForestTypes.ArrivalData[][] memory ret\n         = new DarkForestTypes.ArrivalData[][](endIdx - startIdx);\n        for (uint256 i = startIdx; i < endIdx; i++) {\n            ret[i - startIdx] = getPlanetArrivals(planetIds[i]);\n        }\n        return ret;\n    }\n\n    function getDefaultStats()\n        public\n        view\n        returns (DarkForestTypes.PlanetDefaultStats[] memory)\n    {\n\n            DarkForestTypes.PlanetDefaultStats[] memory ret\n         = new DarkForestTypes.PlanetDefaultStats[](\n            planetLevelThresholds.length\n        );\n        for (uint256 i = 0; i < planetLevelThresholds.length; i += 1) {\n            ret[i] = planetDefaultStats[i];\n        }\n        return ret;\n    }\n\n    function getPlanetCounts() public view returns (uint256[] memory) {\n        return initializedPlanetCountByLevel;\n    }\n\n    function getUpgrades()\n        public\n        view\n        returns (DarkForestTypes.Upgrade[4][3] memory)\n    {\n        return upgrades;\n    }\n\n    // private utilities\n\n    function _getPlanetType()\n        public\n        pure\n        returns (\n            /* uint256 _location */\n            DarkForestTypes.PlanetType\n        )\n    {\n        return DarkForestTypes.PlanetType.PLANET;\n    }\n\n    function _locationIdValid(uint256 _loc) public pure returns (bool) {\n        return (_loc <\n            (21888242871839275222246405745257275088548364400416034343698204186575808495617 /\n                PLANET_RARITY));\n    }\n\n    // Private helpers that modify state\n    function _updateWorldRadius() private {\n        worldRadius = DarkForestUtils._getRadius(\n            initializedPlanetCountByLevel,\n            cumulativeRarities,\n            playerIds.length,\n            target4RadiusConstant,\n            target5RadiusConstant\n        );\n    }\n\n    function _initializePlanet(\n        uint256 _location,\n        uint256 _perlin,\n        bool _isHomePlanet\n    ) private {\n        require(_locationIdValid(_location), \"Not a valid planet location\");\n\n        (\n            uint256 _level,\n            DarkForestTypes.PlanetResource _resource\n        ) = DarkForestUtils._getPlanetLevelAndResource(\n            _location,\n            SILVER_RARITY,\n            planetLevelThresholds,\n            planetDefaultStats\n        );\n\n        DarkForestTypes.PlanetType _type = _getPlanetType();\n\n        if (_isHomePlanet) {\n            require(_level == 0, \"Can only initialize on planet level 0\");\n        }\n\n        DarkForestPlanet.initializePlanet(\n            planets[_location],\n            planetsExtendedInfo[_location],\n            planetDefaultStats[_level],\n            _perlin,\n            VERSION,\n            _type,\n            _resource,\n            _level,\n            _location\n        );\n        planetIds.push(_location);\n        initializedPlanetCountByLevel[_level] += 1;\n    }\n\n    //////////////////////\n    /// Game Mechanics ///\n    //////////////////////\n\n    function refreshPlanet(uint256 _location)\n        public\n        onlyWhitelisted\n        notPaused\n        notEnded\n    {\n        require(\n            planetsExtendedInfo[_location].isInitialized,\n            \"Planet has not been initialized\"\n        );\n\n        // apply all pending events until the current timestamp\n        DarkForestLazyUpdate._applyPendingEvents(\n            _location,\n            planetEvents,\n            planets,\n            planetsExtendedInfo,\n            planetArrivals\n        );\n\n        // we need to do another updatePlanet call to sync the planet's data\n        // to current time.\n        DarkForestLazyUpdate.updatePlanet(\n            planets[_location],\n            planetsExtendedInfo[_location],\n            block.timestamp\n        );\n    }\n\n    function initializePlayer(\n        uint256[2] memory _a,\n        uint256[2][2] memory _b,\n        uint256[2] memory _c,\n        uint256[3] memory _input\n    ) public onlyWhitelisted notPaused notEnded {\n        if (!DISABLE_ZK_CHECK) {\n            require(\n                Verifier.verifyInitProof(_a, _b, _c, _input),\n                \"Failed init proof check\"\n            );\n        }\n\n        uint256 _location = _input[0];\n        uint256 _perlin = _input[1];\n        uint256 _radius = _input[2];\n\n        require(\n            !isPlayerInitialized[msg.sender],\n            \"Player is already initialized\"\n        );\n        require(\n            !planetsExtendedInfo[_location].isInitialized,\n            \"Planet is already initialized\"\n        );\n        require(\n            _radius <= worldRadius,\n            \"Init radius is bigger than the current world radius\"\n        );\n        // require(\n        //     _perlin <= PERLIN_THRESHOLD,\n        //     \"Init not allowed in perlin value above the threshold\"\n        // );\n\n        // Initialize player data\n        isPlayerInitialized[msg.sender] = true;\n        playerIds.push(msg.sender);\n\n        // Initialize planet information\n        _initializePlanet(_location, _perlin, true);\n        planets[_location].owner = msg.sender;\n        planets[_location].population = 75000;\n        _updateWorldRadius();\n        emit PlayerInitialized(msg.sender, _location);\n    }\n\n    function move(\n        uint256[2] memory _a,\n        uint256[2][2] memory _b,\n        uint256[2] memory _c,\n        uint256[7] memory _input\n    ) public notPaused notEnded {\n        uint256 _oldLoc = _input[0];\n        uint256 _newLoc = _input[1];\n        uint256 _newPerlin = _input[2];\n        uint256 _newRadius = _input[3];\n        uint256 _maxDist = _input[4];\n        uint256 _popMoved = _input[5];\n        uint256 _silverMoved = _input[6];\n\n        if (!DISABLE_ZK_CHECK) {\n            uint256[5] memory _proofInput = [\n                _oldLoc,\n                _newLoc,\n                _newPerlin,\n                _newRadius,\n                _maxDist\n            ];\n            require(\n                Verifier.verifyMoveProof(_a, _b, _c, _proofInput),\n                \"Failed move proof check\"\n            );\n        }\n\n        // check radius\n        require(_newRadius <= worldRadius, \"Attempting to move out of bounds\");\n\n        // Only perform if the toPlanet have never initialized previously\n        if (!planetsExtendedInfo[_newLoc].isInitialized) {\n            _initializePlanet(_newLoc, _newPerlin, false);\n        } else {\n            // need to do this so people can't deny service to their own planets with gas limit\n            refreshPlanet(_newLoc);\n            require(planetEvents[_newLoc].length < 8, \"Planet is rate-limited\");\n        }\n\n        // Refresh fromPlanet first before doing any action on it\n        refreshPlanet(_oldLoc);\n        DarkForestPlanet.move(\n            _oldLoc,\n            _newLoc,\n            _maxDist,\n            _popMoved,\n            _silverMoved,\n            GLOBAL_SPEED_IN_HUNDRETHS,\n            planetEventsCount,\n            planets,\n            planetEvents,\n            planetArrivals\n        );\n\n        planetEventsCount++;\n\n        _updateWorldRadius();\n        emit ArrivalQueued(planetEventsCount - 1);\n    }\n\n    function upgradePlanet(uint256 _location, uint256 _branch)\n        public\n        notPaused\n        notEnded\n    {\n        // _branch specifies which of the three upgrade branches player is leveling up\n        // 0 improves silver production and capacity\n        // 1 improves population\n        // 2 improves range\n        refreshPlanet(_location);\n        DarkForestPlanet.upgradePlanet(\n            planets[_location],\n            planetsExtendedInfo[_location],\n            _branch,\n            planetDefaultStats,\n            upgrades\n        );\n        emit PlanetUpgraded(_location);\n    }\n}\n",
  "sourcePath": "contracts/core/DarkForestCore.sol",
  "abi": [
    {
      "anonymous": false,
      "inputs": [
        {
          "indexed": false,
          "internalType": "uint256",
          "name": "arrivalId",
          "type": "uint256"
        }
      ],
      "name": "ArrivalQueued",
      "type": "event"
    },
    {
      "anonymous": false,
      "inputs": [
        {
          "indexed": false,
          "internalType": "uint256",
          "name": "loc",
          "type": "uint256"
        }
      ],
      "name": "PlanetUpgraded",
      "type": "event"
    },
    {
      "anonymous": false,
      "inputs": [
        {
          "indexed": false,
          "internalType": "address",
          "name": "player",
          "type": "address"
        },
        {
          "indexed": false,
          "internalType": "uint256",
          "name": "loc",
          "type": "uint256"
        }
      ],
      "name": "PlayerInitialized",
      "type": "event"
    },
    {
      "inputs": [],
      "name": "DISABLE_ZK_CHECK",
      "outputs": [
        {
          "internalType": "bool",
          "name": "",
          "type": "bool"
        }
      ],
      "stateMutability": "view",
      "type": "function"
    },
    {
      "inputs": [],
      "name": "ENERGY_CAP",
      "outputs": [
        {
          "internalType": "uint256",
          "name": "",
          "type": "uint256"
        }
      ],
      "stateMutability": "view",
      "type": "function"
    },
    {
      "inputs": [],
      "name": "ENERGY_PER_SECOND",
      "outputs": [
        {
          "internalType": "uint256",
          "name": "",
          "type": "uint256"
        }
      ],
      "stateMutability": "view",
      "type": "function"
    },
    {
      "inputs": [],
      "name": "GLOBAL_SPEED_IN_HUNDRETHS",
      "outputs": [
        {
          "internalType": "uint256",
          "name": "",
          "type": "uint256"
        }
      ],
      "stateMutability": "view",
      "type": "function"
    },
    {
      "inputs": [],
      "name": "PERLIN_THRESHOLD",
      "outputs": [
        {
          "internalType": "uint256",
          "name": "",
          "type": "uint256"
        }
      ],
      "stateMutability": "view",
      "type": "function"
    },
    {
      "inputs": [],
      "name": "PLANET_RARITY",
      "outputs": [
        {
          "internalType": "uint256",
          "name": "",
          "type": "uint256"
        }
      ],
      "stateMutability": "view",
      "type": "function"
    },
    {
      "inputs": [],
      "name": "SILVER_RARITY",
      "outputs": [
        {
          "internalType": "uint256",
          "name": "",
          "type": "uint256"
        }
      ],
      "stateMutability": "view",
      "type": "function"
    },
    {
      "inputs": [],
      "name": "TRADING_POST_BARBARIANS",
      "outputs": [
        {
          "internalType": "uint256",
          "name": "",
          "type": "uint256"
        }
      ],
      "stateMutability": "view",
      "type": "function"
    },
    {
      "inputs": [],
      "name": "TRADING_POST_RARITY",
      "outputs": [
        {
          "internalType": "uint256",
          "name": "",
          "type": "uint256"
        }
      ],
      "stateMutability": "view",
      "type": "function"
    },
    {
      "inputs": [],
      "name": "VERSION",
      "outputs": [
        {
          "internalType": "uint256",
          "name": "",
          "type": "uint256"
        }
      ],
      "stateMutability": "view",
      "type": "function"
    },
    {
      "inputs": [],
      "name": "_getPlanetType",
      "outputs": [
        {
          "internalType": "enum DarkForestTypes.PlanetType",
          "name": "",
          "type": "uint8"
        }
      ],
      "stateMutability": "pure",
      "type": "function"
    },
    {
      "inputs": [
        {
          "internalType": "uint256",
          "name": "_loc",
          "type": "uint256"
        }
      ],
      "name": "_locationIdValid",
      "outputs": [
        {
          "internalType": "bool",
          "name": "",
          "type": "bool"
        }
      ],
      "stateMutability": "pure",
      "type": "function"
    },
    {
      "inputs": [],
      "name": "adminAddress",
      "outputs": [
        {
          "internalType": "address",
          "name": "",
          "type": "address"
        }
      ],
      "stateMutability": "view",
      "type": "function"
    },
    {
      "inputs": [
        {
          "internalType": "uint256",
          "name": "startIdx",
          "type": "uint256"
        },
        {
          "internalType": "uint256",
          "name": "endIdx",
          "type": "uint256"
        }
      ],
      "name": "bulkGetPlanetArrivals",
      "outputs": [
        {
          "components": [
            {
              "internalType": "uint256",
              "name": "id",
              "type": "uint256"
            },
            {
              "internalType": "address",
              "name": "player",
              "type": "address"
            },
            {
              "internalType": "uint256",
              "name": "fromPlanet",
              "type": "uint256"
            },
            {
              "internalType": "uint256",
              "name": "toPlanet",
              "type": "uint256"
            },
            {
              "internalType": "uint256",
              "name": "popArriving",
              "type": "uint256"
            },
            {
              "internalType": "uint256",
              "name": "silverMoved",
              "type": "uint256"
            },
            {
              "internalType": "uint256",
              "name": "departureTime",
              "type": "uint256"
            },
            {
              "internalType": "uint256",
              "name": "arrivalTime",
              "type": "uint256"
            }
          ],
          "internalType": "struct DarkForestTypes.ArrivalData[][]",
          "name": "",
          "type": "tuple[][]"
        }
      ],
      "stateMutability": "view",
      "type": "function"
    },
    {
      "inputs": [
        {
          "internalType": "uint256",
          "name": "startIdx",
          "type": "uint256"
        },
        {
          "internalType": "uint256",
          "name": "endIdx",
          "type": "uint256"
        }
      ],
      "name": "bulkGetPlanetIds",
      "outputs": [
        {
          "internalType": "uint256[]",
          "name": "ret",
          "type": "uint256[]"
        }
      ],
      "stateMutability": "view",
      "type": "function"
    },
    {
      "inputs": [
        {
          "internalType": "uint256",
          "name": "startIdx",
          "type": "uint256"
        },
        {
          "internalType": "uint256",
          "name": "endIdx",
          "type": "uint256"
        }
      ],
      "name": "bulkGetPlanets",
      "outputs": [
        {
          "components": [
            {
              "internalType": "address",
              "name": "owner",
              "type": "address"
            },
            {
              "internalType": "uint256",
              "name": "range",
              "type": "uint256"
            },
            {
              "internalType": "uint256",
              "name": "population",
              "type": "uint256"
            },
            {
              "internalType": "uint256",
              "name": "populationCap",
              "type": "uint256"
            },
            {
              "internalType": "uint256",
              "name": "populationGrowth",
              "type": "uint256"
            },
            {
              "internalType": "enum DarkForestTypes.PlanetResource",
              "name": "planetResource",
              "type": "uint8"
            },
            {
              "internalType": "uint256",
              "name": "silverCap",
              "type": "uint256"
            },
            {
              "internalType": "uint256",
              "name": "silverGrowth",
              "type": "uint256"
            },
            {
              "internalType": "uint256",
              "name": "silver",
              "type": "uint256"
            },
            {
              "internalType": "uint256",
              "name": "silverMax",
              "type": "uint256"
            },
            {
              "internalType": "uint256",
              "name": "planetLevel",
              "type": "uint256"
            },
            {
              "internalType": "enum DarkForestTypes.PlanetType",
              "name": "planetType",
              "type": "uint8"
            }
          ],
          "internalType": "struct DarkForestTypes.Planet[]",
          "name": "ret",
          "type": "tuple[]"
        }
      ],
      "stateMutability": "view",
      "type": "function"
    },
    {
      "inputs": [
        {
          "internalType": "uint256",
          "name": "startIdx",
          "type": "uint256"
        },
        {
          "internalType": "uint256",
          "name": "endIdx",
          "type": "uint256"
        }
      ],
      "name": "bulkGetPlanetsExtendedInfo",
      "outputs": [
        {
          "components": [
            {
              "internalType": "bool",
              "name": "isInitialized",
              "type": "bool"
            },
            {
              "internalType": "uint256",
              "name": "version",
              "type": "uint256"
            },
            {
              "internalType": "uint256",
              "name": "lastUpdated",
              "type": "uint256"
            },
            {
              "internalType": "uint256",
              "name": "perlin",
              "type": "uint256"
            },
            {
              "internalType": "uint256",
              "name": "upgradeState0",
              "type": "uint256"
            },
            {
              "internalType": "uint256",
              "name": "upgradeState1",
              "type": "uint256"
            },
            {
              "internalType": "uint256",
              "name": "upgradeState2",
              "type": "uint256"
            }
          ],
          "internalType": "struct DarkForestTypes.PlanetExtendedInfo[]",
          "name": "ret",
          "type": "tuple[]"
        }
      ],
      "stateMutability": "view",
      "type": "function"
    },
    {
      "inputs": [
        {
          "internalType": "uint256",
          "name": "startIdx",
          "type": "uint256"
        },
        {
          "internalType": "uint256",
          "name": "endIdx",
          "type": "uint256"
        }
      ],
      "name": "bulkGetPlayers",
      "outputs": [
        {
          "internalType": "address[]",
          "name": "ret",
          "type": "address[]"
        }
      ],
      "stateMutability": "view",
      "type": "function"
    },
    {
      "inputs": [
        {
          "internalType": "address",
          "name": "_newAdmin",
          "type": "address"
        }
      ],
      "name": "changeAdmin",
      "outputs": [],
      "stateMutability": "nonpayable",
      "type": "function"
    },
    {
      "inputs": [
        {
          "internalType": "uint256",
          "name": "_newGameEnd",
          "type": "uint256"
        }
      ],
      "name": "changeGameEndTime",
      "outputs": [],
      "stateMutability": "nonpayable",
      "type": "function"
    },
    {
      "inputs": [
        {
          "internalType": "uint256",
          "name": "_newConstant",
          "type": "uint256"
        }
      ],
      "name": "changeTarget4RadiusConstant",
      "outputs": [],
      "stateMutability": "nonpayable",
      "type": "function"
    },
    {
      "inputs": [
        {
          "internalType": "uint256",
          "name": "_newConstant",
          "type": "uint256"
        }
      ],
      "name": "changeTarget5RadiusConstant",
      "outputs": [],
      "stateMutability": "nonpayable",
      "type": "function"
    },
    {
      "inputs": [
        {
          "internalType": "uint256",
          "name": "",
          "type": "uint256"
        }
      ],
      "name": "cumulativeRarities",
      "outputs": [
        {
          "internalType": "uint256",
          "name": "",
          "type": "uint256"
        }
      ],
      "stateMutability": "view",
      "type": "function"
    },
    {
      "inputs": [],
      "name": "getDefaultStats",
      "outputs": [
        {
          "components": [
            {
              "internalType": "string",
              "name": "label",
              "type": "string"
            },
            {
              "internalType": "uint256",
              "name": "populationCap",
              "type": "uint256"
            },
            {
              "internalType": "uint256",
              "name": "populationGrowth",
              "type": "uint256"
            },
            {
              "internalType": "uint256",
              "name": "range",
              "type": "uint256"
            },
            {
              "internalType": "uint256",
              "name": "silverGrowth",
              "type": "uint256"
            },
            {
              "internalType": "uint256",
              "name": "silverCap",
              "type": "uint256"
            },
            {
              "internalType": "uint256",
              "name": "silverMax",
              "type": "uint256"
            },
            {
              "internalType": "uint256",
              "name": "barbarianPercentage",
              "type": "uint256"
            },
            {
              "internalType": "uint256",
              "name": "energyCost",
              "type": "uint256"
            }
          ],
          "internalType": "struct DarkForestTypes.PlanetDefaultStats[]",
          "name": "",
          "type": "tuple[]"
        }
      ],
      "stateMutability": "view",
      "type": "function"
    },
    {
      "inputs": [],
      "name": "getNPlanets",
      "outputs": [
        {
          "internalType": "uint256",
          "name": "",
          "type": "uint256"
        }
      ],
      "stateMutability": "view",
      "type": "function"
    },
    {
      "inputs": [],
      "name": "getNPlayers",
      "outputs": [
        {
          "internalType": "uint256",
          "name": "",
          "type": "uint256"
        }
      ],
      "stateMutability": "view",
      "type": "function"
    },
    {
      "inputs": [
        {
          "internalType": "uint256",
          "name": "_location",
          "type": "uint256"
        }
      ],
      "name": "getPlanetArrivals",
      "outputs": [
        {
          "components": [
            {
              "internalType": "uint256",
              "name": "id",
              "type": "uint256"
            },
            {
              "internalType": "address",
              "name": "player",
              "type": "address"
            },
            {
              "internalType": "uint256",
              "name": "fromPlanet",
              "type": "uint256"
            },
            {
              "internalType": "uint256",
              "name": "toPlanet",
              "type": "uint256"
            },
            {
              "internalType": "uint256",
              "name": "popArriving",
              "type": "uint256"
            },
            {
              "internalType": "uint256",
              "name": "silverMoved",
              "type": "uint256"
            },
            {
              "internalType": "uint256",
              "name": "departureTime",
              "type": "uint256"
            },
            {
              "internalType": "uint256",
              "name": "arrivalTime",
              "type": "uint256"
            }
          ],
          "internalType": "struct DarkForestTypes.ArrivalData[]",
          "name": "ret",
          "type": "tuple[]"
        }
      ],
      "stateMutability": "view",
      "type": "function"
    },
    {
      "inputs": [],
      "name": "getPlanetCounts",
      "outputs": [
        {
          "internalType": "uint256[]",
          "name": "",
          "type": "uint256[]"
        }
      ],
      "stateMutability": "view",
      "type": "function"
    },
    {
      "inputs": [],
      "name": "getPlanetCumulativeRarities",
      "outputs": [
        {
          "internalType": "uint256[]",
          "name": "",
          "type": "uint256[]"
        }
      ],
      "stateMutability": "view",
      "type": "function"
    },
    {
      "inputs": [],
      "name": "getPlanetLevelThresholds",
      "outputs": [
        {
          "internalType": "uint256[]",
          "name": "",
          "type": "uint256[]"
        }
      ],
      "stateMutability": "view",
      "type": "function"
    },
    {
      "inputs": [],
      "name": "getPlanetTypeThresholds",
      "outputs": [
        {
          "internalType": "uint256[]",
          "name": "",
          "type": "uint256[]"
        }
      ],
      "stateMutability": "view",
      "type": "function"
    },
    {
      "inputs": [],
      "name": "getUpgrades",
      "outputs": [
        {
          "components": [
            {
              "internalType": "uint256",
              "name": "popCapMultiplier",
              "type": "uint256"
            },
            {
              "internalType": "uint256",
              "name": "popGroMultiplier",
              "type": "uint256"
            },
            {
              "internalType": "uint256",
              "name": "silverCapMultiplier",
              "type": "uint256"
            },
            {
              "internalType": "uint256",
              "name": "silverGroMultiplier",
              "type": "uint256"
            },
            {
              "internalType": "uint256",
              "name": "silverMaxMultiplier",
              "type": "uint256"
            },
            {
              "internalType": "uint256",
              "name": "rangeMultiplier",
              "type": "uint256"
            },
            {
              "internalType": "uint256",
              "name": "silverCostMultiplier",
              "type": "uint256"
            }
          ],
          "internalType": "struct DarkForestTypes.Upgrade[4][3]",
          "name": "",
          "type": "tuple[4][3]"
        }
      ],
      "stateMutability": "view",
      "type": "function"
    },
    {
      "inputs": [
        {
          "internalType": "address",
          "name": "_adminAddress",
          "type": "address"
        },
        {
          "internalType": "address payable",
          "name": "_whitelistAddress",
          "type": "address"
        },
        {
          "internalType": "bool",
          "name": "_disableZKCheck",
          "type": "bool"
        }
      ],
      "name": "initialize",
      "outputs": [],
      "stateMutability": "nonpayable",
      "type": "function"
    },
    {
      "inputs": [
        {
          "internalType": "uint256[2]",
          "name": "_a",
          "type": "uint256[2]"
        },
        {
          "internalType": "uint256[2][2]",
          "name": "_b",
          "type": "uint256[2][2]"
        },
        {
          "internalType": "uint256[2]",
          "name": "_c",
          "type": "uint256[2]"
        },
        {
          "internalType": "uint256[3]",
          "name": "_input",
          "type": "uint256[3]"
        }
      ],
      "name": "initializePlayer",
      "outputs": [],
      "stateMutability": "nonpayable",
      "type": "function"
    },
    {
      "inputs": [
        {
          "internalType": "uint256",
          "name": "",
          "type": "uint256"
        }
      ],
      "name": "initializedPlanetCountByLevel",
      "outputs": [
        {
          "internalType": "uint256",
          "name": "",
          "type": "uint256"
        }
      ],
      "stateMutability": "view",
      "type": "function"
    },
    {
      "inputs": [
        {
          "internalType": "address",
          "name": "",
          "type": "address"
        }
      ],
      "name": "isPlayerInitialized",
      "outputs": [
        {
          "internalType": "bool",
          "name": "",
          "type": "bool"
        }
      ],
      "stateMutability": "view",
      "type": "function"
    },
    {
      "inputs": [
        {
          "internalType": "uint256[2]",
          "name": "_a",
          "type": "uint256[2]"
        },
        {
          "internalType": "uint256[2][2]",
          "name": "_b",
          "type": "uint256[2][2]"
        },
        {
          "internalType": "uint256[2]",
          "name": "_c",
          "type": "uint256[2]"
        },
        {
          "internalType": "uint256[7]",
          "name": "_input",
          "type": "uint256[7]"
        }
      ],
      "name": "move",
      "outputs": [],
      "stateMutability": "nonpayable",
      "type": "function"
    },
    {
      "inputs": [],
      "name": "pause",
      "outputs": [],
      "stateMutability": "nonpayable",
      "type": "function"
    },
    {
      "inputs": [],
      "name": "paused",
      "outputs": [
        {
          "internalType": "bool",
          "name": "",
          "type": "bool"
        }
      ],
      "stateMutability": "view",
      "type": "function"
    },
    {
      "inputs": [
        {
          "internalType": "uint256",
          "name": "",
          "type": "uint256"
        }
      ],
      "name": "planetArrivals",
      "outputs": [
        {
          "internalType": "uint256",
          "name": "id",
          "type": "uint256"
        },
        {
          "internalType": "address",
          "name": "player",
          "type": "address"
        },
        {
          "internalType": "uint256",
          "name": "fromPlanet",
          "type": "uint256"
        },
        {
          "internalType": "uint256",
          "name": "toPlanet",
          "type": "uint256"
        },
        {
          "internalType": "uint256",
          "name": "popArriving",
          "type": "uint256"
        },
        {
          "internalType": "uint256",
          "name": "silverMoved",
          "type": "uint256"
        },
        {
          "internalType": "uint256",
          "name": "departureTime",
          "type": "uint256"
        },
        {
          "internalType": "uint256",
          "name": "arrivalTime",
          "type": "uint256"
        }
      ],
      "stateMutability": "view",
      "type": "function"
    },
    {
      "inputs": [
        {
          "internalType": "uint256",
          "name": "",
          "type": "uint256"
        }
      ],
      "name": "planetDefaultStats",
      "outputs": [
        {
          "internalType": "string",
          "name": "label",
          "type": "string"
        },
        {
          "internalType": "uint256",
          "name": "populationCap",
          "type": "uint256"
        },
        {
          "internalType": "uint256",
          "name": "populationGrowth",
          "type": "uint256"
        },
        {
          "internalType": "uint256",
          "name": "range",
          "type": "uint256"
        },
        {
          "internalType": "uint256",
          "name": "silverGrowth",
          "type": "uint256"
        },
        {
          "internalType": "uint256",
          "name": "silverCap",
          "type": "uint256"
        },
        {
          "internalType": "uint256",
          "name": "silverMax",
          "type": "uint256"
        },
        {
          "internalType": "uint256",
          "name": "barbarianPercentage",
          "type": "uint256"
        },
        {
          "internalType": "uint256",
          "name": "energyCost",
          "type": "uint256"
        }
      ],
      "stateMutability": "view",
      "type": "function"
    },
    {
      "inputs": [
        {
          "internalType": "uint256",
          "name": "",
          "type": "uint256"
        },
        {
          "internalType": "uint256",
          "name": "",
          "type": "uint256"
        }
      ],
      "name": "planetEvents",
      "outputs": [
        {
          "internalType": "uint256",
          "name": "id",
          "type": "uint256"
        },
        {
          "internalType": "enum DarkForestTypes.PlanetEventType",
          "name": "eventType",
          "type": "uint8"
        },
        {
          "internalType": "uint256",
          "name": "timeTrigger",
          "type": "uint256"
        },
        {
          "internalType": "uint256",
          "name": "timeAdded",
          "type": "uint256"
        }
      ],
      "stateMutability": "view",
      "type": "function"
    },
    {
      "inputs": [],
      "name": "planetEventsCount",
      "outputs": [
        {
          "internalType": "uint256",
          "name": "",
          "type": "uint256"
        }
      ],
      "stateMutability": "view",
      "type": "function"
    },
    {
      "inputs": [
        {
          "internalType": "uint256",
          "name": "",
          "type": "uint256"
        }
      ],
      "name": "planetIds",
      "outputs": [
        {
          "internalType": "uint256",
          "name": "",
          "type": "uint256"
        }
      ],
      "stateMutability": "view",
      "type": "function"
    },
    {
      "inputs": [
        {
          "internalType": "uint256",
          "name": "",
          "type": "uint256"
        }
      ],
      "name": "planetLevelThresholds",
      "outputs": [
        {
          "internalType": "uint256",
          "name": "",
          "type": "uint256"
        }
      ],
      "stateMutability": "view",
      "type": "function"
    },
    {
      "inputs": [
        {
          "internalType": "uint256",
          "name": "",
          "type": "uint256"
        }
      ],
      "name": "planetTypeThresholds",
      "outputs": [
        {
          "internalType": "uint256",
          "name": "",
          "type": "uint256"
        }
      ],
      "stateMutability": "view",
      "type": "function"
    },
    {
      "inputs": [
        {
          "internalType": "uint256",
          "name": "",
          "type": "uint256"
        }
      ],
      "name": "planets",
      "outputs": [
        {
          "internalType": "address",
          "name": "owner",
          "type": "address"
        },
        {
          "internalType": "uint256",
          "name": "range",
          "type": "uint256"
        },
        {
          "internalType": "uint256",
          "name": "population",
          "type": "uint256"
        },
        {
          "internalType": "uint256",
          "name": "populationCap",
          "type": "uint256"
        },
        {
          "internalType": "uint256",
          "name": "populationGrowth",
          "type": "uint256"
        },
        {
          "internalType": "enum DarkForestTypes.PlanetResource",
          "name": "planetResource",
          "type": "uint8"
        },
        {
          "internalType": "uint256",
          "name": "silverCap",
          "type": "uint256"
        },
        {
          "internalType": "uint256",
          "name": "silverGrowth",
          "type": "uint256"
        },
        {
          "internalType": "uint256",
          "name": "silver",
          "type": "uint256"
        },
        {
          "internalType": "uint256",
          "name": "silverMax",
          "type": "uint256"
        },
        {
          "internalType": "uint256",
          "name": "planetLevel",
          "type": "uint256"
        },
        {
          "internalType": "enum DarkForestTypes.PlanetType",
          "name": "planetType",
          "type": "uint8"
        }
      ],
      "stateMutability": "view",
      "type": "function"
    },
    {
      "inputs": [
        {
          "internalType": "uint256",
          "name": "",
          "type": "uint256"
        }
      ],
      "name": "planetsExtendedInfo",
      "outputs": [
        {
          "internalType": "bool",
          "name": "isInitialized",
          "type": "bool"
        },
        {
          "internalType": "uint256",
          "name": "version",
          "type": "uint256"
        },
        {
          "internalType": "uint256",
          "name": "lastUpdated",
          "type": "uint256"
        },
        {
          "internalType": "uint256",
          "name": "perlin",
          "type": "uint256"
        },
        {
          "internalType": "uint256",
          "name": "upgradeState0",
          "type": "uint256"
        },
        {
          "internalType": "uint256",
          "name": "upgradeState1",
          "type": "uint256"
        },
        {
          "internalType": "uint256",
          "name": "upgradeState2",
          "type": "uint256"
        }
      ],
      "stateMutability": "view",
      "type": "function"
    },
    {
      "inputs": [
        {
          "internalType": "uint256",
          "name": "",
          "type": "uint256"
        }
      ],
      "name": "playerIds",
      "outputs": [
        {
          "internalType": "address",
          "name": "",
          "type": "address"
        }
      ],
      "stateMutability": "view",
      "type": "function"
    },
    {
      "inputs": [
        {
          "internalType": "uint256",
          "name": "_location",
          "type": "uint256"
        }
      ],
      "name": "refreshPlanet",
      "outputs": [],
      "stateMutability": "nonpayable",
      "type": "function"
    },
    {
      "inputs": [],
      "name": "unpause",
      "outputs": [],
      "stateMutability": "nonpayable",
      "type": "function"
    },
    {
      "inputs": [
        {
          "internalType": "uint256",
          "name": "_location",
          "type": "uint256"
        },
        {
          "internalType": "uint256",
          "name": "_branch",
          "type": "uint256"
        }
      ],
      "name": "upgradePlanet",
      "outputs": [],
      "stateMutability": "nonpayable",
      "type": "function"
    },
    {
      "inputs": [
        {
          "internalType": "uint256",
          "name": "",
          "type": "uint256"
        },
        {
          "internalType": "uint256",
          "name": "",
          "type": "uint256"
        }
      ],
      "name": "upgrades",
      "outputs": [
        {
          "internalType": "uint256",
          "name": "popCapMultiplier",
          "type": "uint256"
        },
        {
          "internalType": "uint256",
          "name": "popGroMultiplier",
          "type": "uint256"
        },
        {
          "internalType": "uint256",
          "name": "silverCapMultiplier",
          "type": "uint256"
        },
        {
          "internalType": "uint256",
          "name": "silverGroMultiplier",
          "type": "uint256"
        },
        {
          "internalType": "uint256",
          "name": "silverMaxMultiplier",
          "type": "uint256"
        },
        {
          "internalType": "uint256",
          "name": "rangeMultiplier",
          "type": "uint256"
        },
        {
          "internalType": "uint256",
          "name": "silverCostMultiplier",
          "type": "uint256"
        }
      ],
      "stateMutability": "view",
      "type": "function"
    },
    {
      "inputs": [],
      "name": "worldRadius",
      "outputs": [
        {
          "internalType": "uint256",
          "name": "",
          "type": "uint256"
        }
      ],
      "stateMutability": "view",
      "type": "function"
    }
  ],
  "bytecode": "0x608060405234801561001057600080fd5b50615db080620000216000396000f3fe608060405234801561001057600080fd5b50600436106103425760003560e01c80638a05b329116101b8578063c012b11211610104578063de2edb91116100a2578063fbb7fc6c1161007c578063fbb7fc6c14610a7a578063fc6f946814610a98578063fc96355d14610ab6578063ffa1ad7414610ad457610342565b8063de2edb9114610a22578063deb1b5d114610a40578063e4bbb5a814610a5e57610342565b8063c9359491116100de578063c935949114610968578063ccf738e91461099e578063d9c1041f146109d4578063dacb6135146109f257610342565b8063c012b112146108ea578063c68b81261461091a578063c8d503ea1461093857610342565b8063ab23032111610171578063b5549e641161014b578063b5549e6414610858578063b8b0fa9114610890578063bb4908f2146108ae578063bb5a86bd146108cc57610342565b8063ab230321146107d7578063ad4890911461080a578063ae3f86191461083a57610342565b80638a05b329146106ef5780638af9d5621461070d5780638f2839701461072b5780639184f0b614610747578063975de61314610777578063aaca42e9146107a757610342565b80633f4ba83a1161029257806373a853811161023057806378d4ce951161020a57806378d4ce951461068f5780637c58580f146106ab5780638151e1d2146106c95780638456cb59146106e557610342565b806373a853811461061e57806376af38b41461063a57806378d1742b1461067157610342565b80635c975abb1161026c5780635c975abb14610594578063684ee29d146105b2578063695bd00c146105d05780636c7ffeec146105ee57610342565b80633f4ba83a1461053c57806340a72788146105465780634eb0e9591461057657610342565b806310d4abf2116102ff578063221f7764116102d9578063221f77641461048557806326c1e750146104b557806336b3d148146104f05780633f324cf31461052057610342565b806310d4abf21461040757806316a85e08146104375780631f2836b71461045557610342565b8063039e4e741461034757806304d74a391461036357806305b86be5146103935780630767751a146103b157806308d2e95a146103cd5780630af80778146103eb575b600080fd5b610361600480360381019061035c9190613c5f565b610af2565b005b61037d60048036038101906103789190613ced565b610b8c565b60405161038a9190614fb1565b60405180910390f35b61039b610cab565b6040516103a89190615083565b60405180910390f35b6103cb60048036038101906103c69190613c5f565b610d03565b005b6103d5610d9d565b6040516103e29190614f74565b60405180910390f35b61040560048036038101906104009190613bd1565b610f4c565b005b610421600480360381019061041c9190613c5f565b611359565b60405161042e9190615588565b60405180910390f35b61043f61137a565b60405161044c9190615083565b60405180910390f35b61046f600480360381019061046a9190613c5f565b6113d2565b60405161047c9190615588565b60405180910390f35b61049f600480360381019061049a9190613c5f565b6113f3565b6040516104ac9190615588565b60405180910390f35b6104cf60048036038101906104ca9190613c5f565b611414565b6040516104e79c9b9a99989796959493929190614e1d565b60405180910390f35b61050a60048036038101906105059190613c5f565b6114ae565b6040516105179190615588565b60405180910390f35b61053a60048036038101906105359190613c5f565b6114cf565b005b6105446117b5565b005b610560600480360381019061055b9190613ced565b6118b1565b60405161056d9190614ef9565b60405180910390f35b61057e611963565b60405161058b9190615588565b60405180910390f35b61059c611969565b6040516105a991906150f8565b60405180910390f35b6105ba61197c565b6040516105c79190615588565b60405180910390f35b6105d8611981565b6040516105e59190614f1b565b60405180910390f35b61060860048036038101906106039190613ced565b611a51565b6040516106159190614ed7565b60405180910390f35b61063860048036038101906106339190613ced565b611b40565b005b610654600480360381019061064f9190613c5f565b611cad565b6040516106689897969594939291906155a3565b60405180910390f35b610679611d15565b6040516106869190615083565b60405180910390f35b6106a960048036038101906106a49190613b6c565b611d6d565b005b6106b36122c8565b6040516106c09190615588565b60405180910390f35b6106e360048036038101906106de9190613c5f565b6122cd565b005b6106ed612367565b005b6106f7612464565b6040516107049190615588565b60405180910390f35b610715612471565b60405161072291906150f8565b60405180910390f35b61074560048036038101906107409190613af4565b612484565b005b610761600480360381019061075c9190613af4565b6125c8565b60405161076e91906150f8565b60405180910390f35b610791600480360381019061078c9190613ced565b6125e8565b60405161079e9190614fd3565b60405180910390f35b6107c160048036038101906107bc9190613ced565b6127bb565b6040516107ce9190615083565b60405180910390f35b6107f160048036038101906107ec9190613ced565b61285c565b6040516108019493929190615621565b60405180910390f35b610824600480360381019061081f9190613c5f565b6128b3565b6040516108319190615588565b60405180910390f35b6108426128d4565b60405161084f9190615083565b60405180910390f35b610872600480360381019061086d9190613c5f565b61292c565b6040516108879998979695949392919061519d565b60405180910390f35b610898612a1f565b6040516108a59190615588565b60405180910390f35b6108b6612a24565b6040516108c39190615588565b60405180910390f35b6108d4612a2a565b6040516108e19190615588565b60405180910390f35b61090460048036038101906108ff9190613c5f565b612a2f565b6040516109119190614dbe565b60405180910390f35b610922612a6b565b60405161092f9190615588565b60405180910390f35b610952600480360381019061094d9190613c5f565b612a78565b60405161095f91906150f8565b60405180910390f35b610982600480360381019061097d9190613ced565b612aaf565b60405161099597969594939291906156fe565b60405180910390f35b6109b860048036038101906109b39190613c5f565b612b04565b6040516109cb9796959493929190615113565b60405180910390f35b6109dc612b53565b6040516109e99190615588565b60405180910390f35b610a0c6004803603810190610a079190613c5f565b612b58565b604051610a199190614f52565b60405180910390f35b610a2a612dd6565b604051610a379190615588565b60405180910390f35b610a48612ddc565b604051610a559190615182565b60405180910390f35b610a786004803603810190610a739190613b1d565b612de1565b005b610a8261321a565b604051610a8f9190615588565b60405180910390f35b610aa061321f565b604051610aad9190614dbe565b60405180910390f35b610abe613245565b604051610acb9190615588565b60405180910390f35b610adc61324c565b604051610ae99190615588565b60405180910390f35b603360009054906101000a900473ffffffffffffffffffffffffffffffffffffffff1673ffffffffffffffffffffffffffffffffffffffff163373ffffffffffffffffffffffffffffffffffffffff1614610b82576040517f08c379a0000000000000000000000000000000000000000000000000000000008152600401610b7990615291565b60405180910390fd5b8060928190555050565b606082820367ffffffffffffffff81118015610ba757600080fd5b50604051908082528060200260200182016040528015610be157816020015b610bce61354d565b815260200190600190039081610bc65790505b50905060008390505b82811015610ca4576098600060938381548110610c0357fe5b906000526020600020015481526020019081526020016000206040518060e00160405290816000820160009054906101000a900460ff1615151515815260200160018201548152602001600282015481526020016003820154815260200160048201548152602001600582015481526020016006820154815250508285830381518110610c8c57fe5b60200260200101819052508080600101915050610bea565b5092915050565b60606037805480602002602001604051908101604052809291908181526020018280548015610cf957602002820191906000526020600020905b815481526020019060010190808311610ce5575b5050505050905090565b603360009054906101000a900473ffffffffffffffffffffffffffffffffffffffff1673ffffffffffffffffffffffffffffffffffffffff163373ffffffffffffffffffffffffffffffffffffffff1614610d93576040517f08c379a0000000000000000000000000000000000000000000000000000000008152600401610d8a90615291565b60405180910390fd5b8060918190555050565b60608060378054905067ffffffffffffffff81118015610dbc57600080fd5b50604051908082528060200260200182016040528015610df657816020015b610de361358c565b815260200190600190039081610ddb5790505b50905060005b603780549050811015610f4457603b8181548110610e1657fe5b906000526020600020906009020160405180610120016040529081600082018054600181600116156101000203166002900480601f016020809104026020016040519081016040528092919081815260200182805460018160011615610100020316600290048015610ec95780601f10610e9e57610100808354040283529160200191610ec9565b820191906000526020600020905b815481529060010190602001808311610eac57829003601f168201915b5050505050815260200160018201548152602001600282015481526020016003820154815260200160048201548152602001600582015481526020016006820154815260200160078201548152602001600882015481525050828281518110610f2e57fe5b6020026020010181905250600181019050610dfc565b508091505090565b603460149054906101000a900460ff1615610f9c576040517f08c379a0000000000000000000000000000000000000000000000000000000008152600401610f93906153d1565b60405180910390fd5b6090544210610fe0576040517f08c379a0000000000000000000000000000000000000000000000000000000008152600401610fd790615231565b60405180910390fd5b600081600060078110610fef57fe5b6020020151905060008260016007811061100557fe5b6020020151905060008360026007811061101b57fe5b6020020151905060008460036007811061103157fe5b6020020151905060008560046007811061104757fe5b6020020151905060008660056007811061105d57fe5b6020020151905060008760066007811061107357fe5b60200201519050603660009054906101000a900460ff1661118d576110966135d8565b6040518060a0016040528089815260200188815260200187815260200186815260200185815250905073__Verifier______________________________63275abc628d8d8d856040518563ffffffff1660e01b81526004016110fc949392919061503c565b60206040518083038186803b15801561111457600080fd5b505af4158015611128573d6000803e3d6000fd5b505050506040513d601f19601f8201168201806040525081019061114c9190613c36565b61118b576040517f08c379a000000000000000000000000000000000000000000000000000000000815260040161118290615371565b60405180910390fd5b505b6095548411156111d2576040517f08c379a00000000000000000000000000000000000000000000000000000000081526004016111c990615411565b60405180910390fd5b6098600087815260200190815260200160002060000160009054906101000a900460ff1661120b5761120686866000613252565b61126e565b611214866114cf565b6008609a6000888152602001908152602001600020805490501061126d576040517f08c379a000000000000000000000000000000000000000000000000000000000815260040161126490615271565b60405180910390fd5b5b611277876114cf565b73__DarkForestPlanet______________________6307ffcebf8888868686604b6096546097609a609b6040518b63ffffffff1660e01b81526004016112c69a9998979695949392919061576d565b60006040518083038186803b1580156112de57600080fd5b505af41580156112f2573d6000803e3d6000fd5b50505050609660008154809291906001019190505550611310613494565b7f73589d8f04c4286010ba8cbf687f804de4f668cb96b2d8c73f310ceb90a48fc06001609654036040516113449190615588565b60405180910390a15050505050505050505050565b6039818154811061136657fe5b906000526020600020016000915090505481565b606060388054806020026020016040519081016040528092919081815260200182805480156113c857602002820191906000526020600020905b8154815260200190600101908083116113b4575b5050505050905090565b603a81815481106113df57fe5b906000526020600020016000915090505481565b6037818154811061140057fe5b906000526020600020016000915090505481565b60976020528060005260406000206000915090508060000160009054906101000a900473ffffffffffffffffffffffffffffffffffffffff16908060010154908060020154908060030154908060040154908060050160009054906101000a900460ff169080600601549080600701549080600801549080600901549080600a01549080600b0160009054906101000a900460ff1690508c565b603881815481106114bb57fe5b906000526020600020016000915090505481565b603460009054906101000a900473ffffffffffffffffffffffffffffffffffffffff1673ffffffffffffffffffffffffffffffffffffffff16633af32abf336040518263ffffffff1660e01b815260040161152a9190614dd9565b60206040518083038186803b15801561154257600080fd5b505afa158015611556573d6000803e3d6000fd5b505050506040513d601f19601f8201168201806040525081019061157a9190613c36565b6115b9576040517f08c379a00000000000000000000000000000000000000000000000000000000081526004016115b0906152f1565b60405180910390fd5b603460149054906101000a900460ff1615611609576040517f08c379a0000000000000000000000000000000000000000000000000000000008152600401611600906153d1565b60405180910390fd5b609054421061164d576040517f08c379a000000000000000000000000000000000000000000000000000000000815260040161164490615231565b60405180910390fd5b6098600082815260200190815260200160002060000160009054906101000a900460ff166116b0576040517f08c379a00000000000000000000000000000000000000000000000000000000081526004016116a790615451565b60405180910390fd5b73__DarkForestLazyUpdate__________________63b2fe553b82609a60976098609b6040518663ffffffff1660e01b81526004016116f3959493929190615666565b60006040518083038186803b15801561170b57600080fd5b505af415801561171f573d6000803e3d6000fd5b5050505073__DarkForestLazyUpdate__________________634c0d90316097600084815260200190815260200160002060986000858152602001908152602001600020426040518463ffffffff1660e01b8152600401611782939291906154fe565b60006040518083038186803b15801561179a57600080fd5b505af41580156117ae573d6000803e3d6000fd5b5050505050565b603360009054906101000a900473ffffffffffffffffffffffffffffffffffffffff1673ffffffffffffffffffffffffffffffffffffffff163373ffffffffffffffffffffffffffffffffffffffff1614611845576040517f08c379a000000000000000000000000000000000000000000000000000000000815260040161183c90615291565b60405180910390fd5b603460149054906101000a900460ff16611894576040517f08c379a000000000000000000000000000000000000000000000000000000000815260040161188b906153f1565b60405180910390fd5b6000603460146101000a81548160ff021916908315150217905550565b60608083830367ffffffffffffffff811180156118cd57600080fd5b5060405190808252806020026020018201604052801561190157816020015b60608152602001906001900390816118ec5790505b50905060008490505b83811015611958576119326093828154811061192257fe5b9060005260206000200154612b58565b828683038151811061194057fe5b6020026020010181905250808060010191505061190a565b508091505092915050565b60955481565b603460149054906101000a900460ff1681565b601181565b6119896135fa565b603c600380602002604051908101604052809291906000905b82821015611a48578382601c0201600480602002604051908101604052809291906000905b82821015611a35578382600702016040518060e0016040529081600082015481526020016001820154815260200160028201548152602001600382015481526020016004820154815260200160058201548152602001600682015481525050815260200190600101906119c7565b50505050815260200190600101906119a2565b50505050905090565b606082820367ffffffffffffffff81118015611a6c57600080fd5b50604051908082528060200260200182016040528015611a9b5781602001602082028036833780820191505090505b50905060008390505b82811015611b395760948181548110611ab957fe5b9060005260206000200160009054906101000a900473ffffffffffffffffffffffffffffffffffffffff168285830381518110611af257fe5b602002602001019073ffffffffffffffffffffffffffffffffffffffff16908173ffffffffffffffffffffffffffffffffffffffff16815250508080600101915050611aa4565b5092915050565b603460149054906101000a900460ff1615611b90576040517f08c379a0000000000000000000000000000000000000000000000000000000008152600401611b87906153d1565b60405180910390fd5b6090544210611bd4576040517f08c379a0000000000000000000000000000000000000000000000000000000008152600401611bcb90615231565b60405180910390fd5b611bdd826114cf565b73__DarkForestPlanet______________________63e73f4ba8609760008581526020019081526020016000206098600086815260200190815260200160002084603b603c6040518663ffffffff1660e01b8152600401611c42959493929190615535565b60006040518083038186803b158015611c5a57600080fd5b505af4158015611c6e573d6000803e3d6000fd5b505050507f1c3559377dd1e586346f593aa9785e8eea8298f2d2ce1c2ef50428563d8ba84c82604051611ca19190615588565b60405180910390a15050565b609b6020528060005260406000206000915090508060000154908060010160009054906101000a900473ffffffffffffffffffffffffffffffffffffffff16908060020154908060030154908060040154908060050154908060060154908060070154905088565b60606039805480602002602001604051908101604052809291908181526020018280548015611d6357602002820191906000526020600020905b815481526020019060010190808311611d4f575b5050505050905090565b603460009054906101000a900473ffffffffffffffffffffffffffffffffffffffff1673ffffffffffffffffffffffffffffffffffffffff16633af32abf336040518263ffffffff1660e01b8152600401611dc89190614dd9565b60206040518083038186803b158015611de057600080fd5b505afa158015611df4573d6000803e3d6000fd5b505050506040513d601f19601f82011682018060405250810190611e189190613c36565b611e57576040517f08c379a0000000000000000000000000000000000000000000000000000000008152600401611e4e906152f1565b60405180910390fd5b603460149054906101000a900460ff1615611ea7576040517f08c379a0000000000000000000000000000000000000000000000000000000008152600401611e9e906153d1565b60405180910390fd5b6090544210611eeb576040517f08c379a0000000000000000000000000000000000000000000000000000000008152600401611ee290615231565b60405180910390fd5b603660009054906101000a900460ff16611fcc5773__Verifier______________________________638eff8954858585856040518563ffffffff1660e01b8152600401611f3c9493929190614ff5565b60206040518083038186803b158015611f5457600080fd5b505af4158015611f68573d6000803e3d6000fd5b505050506040513d601f19601f82011682018060405250810190611f8c9190613c36565b611fcb576040517f08c379a0000000000000000000000000000000000000000000000000000000008152600401611fc2906152d1565b60405180910390fd5b5b600081600060038110611fdb57fe5b60200201519050600082600160038110611ff157fe5b6020020151905060008360026003811061200757fe5b60200201519050609960003373ffffffffffffffffffffffffffffffffffffffff1673ffffffffffffffffffffffffffffffffffffffff16815260200190815260200160002060009054906101000a900460ff161561209b576040517f08c379a0000000000000000000000000000000000000000000000000000000008152600401612092906152b1565b60405180910390fd5b6098600084815260200190815260200160002060000160009054906101000a900460ff16156120ff576040517f08c379a00000000000000000000000000000000000000000000000000000000081526004016120f690615331565b60405180910390fd5b609554811115612144576040517f08c379a000000000000000000000000000000000000000000000000000000000815260040161213b90615311565b60405180910390fd5b6001609960003373ffffffffffffffffffffffffffffffffffffffff1673ffffffffffffffffffffffffffffffffffffffff16815260200190815260200160002060006101000a81548160ff0219169083151502179055506094339080600181540180825580915050600190039060005260206000200160009091909190916101000a81548173ffffffffffffffffffffffffffffffffffffffff021916908373ffffffffffffffffffffffffffffffffffffffff16021790555061220b83836001613252565b336097600085815260200190815260200160002060000160006101000a81548173ffffffffffffffffffffffffffffffffffffffff021916908373ffffffffffffffffffffffffffffffffffffffff160217905550620124f86097600085815260200190815260200160002060020181905550612286613494565b7f5765df5ce7cf4175ef997923b4936159dcf3cea059434dab4643214d690a2b9533846040516122b7929190614df4565b60405180910390a150505050505050565b601081565b603360009054906101000a900473ffffffffffffffffffffffffffffffffffffffff1673ffffffffffffffffffffffffffffffffffffffff163373ffffffffffffffffffffffffffffffffffffffff161461235d576040517f08c379a000000000000000000000000000000000000000000000000000000000815260040161235490615291565b60405180910390fd5b8060908190555050565b603360009054906101000a900473ffffffffffffffffffffffffffffffffffffffff1673ffffffffffffffffffffffffffffffffffffffff163373ffffffffffffffffffffffffffffffffffffffff16146123f7576040517f08c379a00000000000000000000000000000000000000000000000000000000081526004016123ee90615291565b60405180910390fd5b603460149054906101000a900460ff1615612447576040517f08c379a000000000000000000000000000000000000000000000000000000000815260040161243e90615431565b60405180910390fd5b6001603460146101000a81548160ff021916908315150217905550565b6000609480549050905090565b603660009054906101000a900460ff1681565b603360009054906101000a900473ffffffffffffffffffffffffffffffffffffffff1673ffffffffffffffffffffffffffffffffffffffff163373ffffffffffffffffffffffffffffffffffffffff1614612514576040517f08c379a000000000000000000000000000000000000000000000000000000000815260040161250b90615291565b60405180910390fd5b600073ffffffffffffffffffffffffffffffffffffffff168173ffffffffffffffffffffffffffffffffffffffff161415612584576040517f08c379a000000000000000000000000000000000000000000000000000000000815260040161257b90615251565b60405180910390fd5b80603360006101000a81548173ffffffffffffffffffffffffffffffffffffffff021916908373ffffffffffffffffffffffffffffffffffffffff16021790555050565b60996020528060005260406000206000915054906101000a900460ff1681565b606082820367ffffffffffffffff8111801561260357600080fd5b5060405190808252806020026020018201604052801561263d57816020015b61262a613627565b8152602001906001900390816126225790505b50905060008390505b828110156127b457609760006093838154811061265f57fe5b90600052602060002001548152602001908152602001600020604051806101800160405290816000820160009054906101000a900473ffffffffffffffffffffffffffffffffffffffff1673ffffffffffffffffffffffffffffffffffffffff1673ffffffffffffffffffffffffffffffffffffffff168152602001600182015481526020016002820154815260200160038201548152602001600482015481526020016005820160009054906101000a900460ff16600181111561272057fe5b600181111561272b57fe5b815260200160068201548152602001600782015481526020016008820154815260200160098201548152602001600a8201548152602001600b820160009054906101000a900460ff16600181111561277f57fe5b600181111561278a57fe5b81525050828583038151811061279c57fe5b60200260200101819052508080600101915050612646565b5092915050565b606082820367ffffffffffffffff811180156127d657600080fd5b506040519080825280602002602001820160405280156128055781602001602082028036833780820191505090505b50905060008390505b82811015612855576093818154811061282357fe5b9060005260206000200154828583038151811061283c57fe5b602002602001018181525050808060010191505061280e565b5092915050565b609a602052816000526040600020818154811061287557fe5b9060005260206000209060040201600091509150508060000154908060010160009054906101000a900460ff16908060020154908060030154905084565b609381815481106128c057fe5b906000526020600020016000915090505481565b6060603a80548060200260200160405190810160405280929190818152602001828054801561292257602002820191906000526020600020905b81548152602001906001019080831161290e575b5050505050905090565b603b818154811061293957fe5b9060005260206000209060090201600091509050806000018054600181600116156101000203166002900480601f0160208091040260200160405190810160405280929190818152602001828054600181600116156101000203166002900480156129e55780601f106129ba576101008083540402835291602001916129e5565b820191906000526020600020905b8154815290600101906020018083116129c857829003601f168201915b5050505050908060010154908060020154908060030154908060040154908060050154908060060154908060070154908060080154905089565b603281565b60965481565b601281565b60948181548110612a3c57fe5b906000526020600020016000915054906101000a900473ffffffffffffffffffffffffffffffffffffffff1681565b6000609380549050905090565b60006140007f30644e72e131a029b85045b68181585d2833e84879b9709143e1f593f000000181612aa557fe5b0482109050919050565b603c8260038110612abc57fe5b601c02018160048110612acb57fe5b60070201600091509150508060000154908060010154908060020154908060030154908060040154908060050154908060060154905087565b60986020528060005260406000206000915090508060000160009054906101000a900460ff16908060010154908060020154908060030154908060040154908060050154908060060154905087565b604b81565b60606000805b609a600085815260200190815260200160002080549050811015612be857600080811115612b8857fe5b609a60008681526020019081526020016000208281548110612ba657fe5b906000526020600020906004020160010160009054906101000a900460ff166000811115612bd057fe5b1415612bdd576001820191505b600181019050612b5e565b508067ffffffffffffffff81118015612c0057600080fd5b50604051908082528060200260200182016040528015612c3a57816020015b612c276136b4565b815260200190600190039081612c1f5790505b5091506000805b609a600086815260200190815260200160002080549050811015612dce57600080811115612c6b57fe5b609a60008781526020019081526020016000208281548110612c8957fe5b906000526020600020906004020160010160009054906101000a900460ff166000811115612cb357fe5b1415612dc357609b6000609a60008881526020019081526020016000208381548110612cdb57fe5b906000526020600020906004020160000154815260200190815260200160002060405180610100016040529081600082015481526020016001820160009054906101000a900473ffffffffffffffffffffffffffffffffffffffff1673ffffffffffffffffffffffffffffffffffffffff1673ffffffffffffffffffffffffffffffffffffffff1681526020016002820154815260200160038201548152602001600482015481526020016005820154815260200160068201548152602001600782015481525050848381518110612daf57fe5b602002602001018190525081806001019250505b600181019050612c41565b505050919050565b61400081565b600090565b600060019054906101000a900460ff1680612e005750612dff613536565b5b80612e16575060008054906101000a900460ff16155b612e55576040517f08c379a0000000000000000000000000000000000000000000000000000000008152600401612e4c90615391565b60405180910390fd5b60008060019054906101000a900460ff161590508015612ea5576001600060016101000a81548160ff02191690831515021790555060016000806101000a81548160ff0219169083151502179055505b83603360006101000a81548173ffffffffffffffffffffffffffffffffffffffff021916908373ffffffffffffffffffffffffffffffffffffffff16021790555082603460006101000a81548173ffffffffffffffffffffffffffffffffffffffff021916908373ffffffffffffffffffffffffffffffffffffffff1602179055506000603460146101000a81548160ff021916908315150217905550600160358190555081603660006101000a81548160ff02191690831515021790555063652d3ec06090819055506032609181905550600c60928190555060405180604001604052806201000062ffffff168152602001600062ffffff168152506038906002612fb292919061370f565b50604051806101000160405280630100000063ffffffff168152602001623fffd063ffffffff168152602001620fffc463ffffffff1681526020016203ffc163ffffffff16815260200161ffc063ffffffff168152602001613fc063ffffffff168152602001610fc063ffffffff1681526020016103c063ffffffff168152506037906008613042929190613763565b5073__DarkForestInitialize__________________635dfd086d603b6040518263ffffffff1660e01b815260040161307b9190614f96565b60006040518083038186803b15801561309357600080fd5b505af41580156130a7573d6000803e3d6000fd5b5050505073__DarkForestInitialize__________________63e771ed6b603c6040518263ffffffff1660e01b81526004016130e39190614f37565b60006040518083038186803b1580156130fb57600080fd5b505af415801561310f573d6000803e3d6000fd5b50505050604051806101000160405280600060ff168152602001600060ff168152602001600060ff168152602001600060ff168152602001600060ff168152602001600060ff168152602001600060ff168152602001600060ff16815250603a90600861317d9291906137b8565b5060005b6037805490508110156131ea576039614000603783815481106131a057fe5b90600052602060002001546301000000816131b757fe5b04029080600181540180825580915050600190039060005260206000200160009091909190915055600181019050613181565b506131f3613494565b80156132145760008060016101000a81548160ff0219169083151502179055505b50505050565b600481565b603360009054906101000a900473ffffffffffffffffffffffffffffffffffffffff1681565b62030d4081565b60355481565b61325b83612a78565b61329a576040517f08c379a0000000000000000000000000000000000000000000000000000000008152600401613291906153b1565b60405180910390fd5b60008073__DarkForestUtils_______________________63eb70cb218660046037603b6040518563ffffffff1660e01b81526004016132dd94939291906156b9565b604080518083038186803b1580156132f457600080fd5b505af4158015613308573d6000803e3d6000fd5b505050506040513d601f19601f8201168201806040525081019061332c9190613cb1565b91509150600061333a612ddc565b905083156133865760008314613385576040517f08c379a000000000000000000000000000000000000000000000000000000000815260040161337c90615351565b60405180910390fd5b5b73__DarkForestPlanet______________________6399b9583960976000898152602001908152602001600020609860008a8152602001908152602001600020603b87815481106133d357fe5b90600052602060002090600902018960355487898b8f6040518a63ffffffff1660e01b815260040161340d99989796959493929190615471565b60006040518083038186803b15801561342557600080fd5b505af4158015613439573d6000803e3d6000fd5b5050505060938690806001815401808255809150506001900390600052602060002001600090919091909150556001603a848154811061347557fe5b9060005260206000200160008282540192505081905550505050505050565b73__DarkForestUtils_______________________63c30403df603a60396094805490506091546092546040518663ffffffff1660e01b81526004016134de9594939291906150a5565b60206040518083038186803b1580156134f657600080fd5b505af415801561350a573d6000803e3d6000fd5b505050506040513d601f19601f8201168201806040525081019061352e9190613c88565b609581905550565b6000803090506000813b9050600081149250505090565b6040518060e001604052806000151581526020016000815260200160008152602001600081526020016000815260200160008152602001600081525090565b6040518061012001604052806060815260200160008152602001600081526020016000815260200160008152602001600081526020016000815260200160008152602001600081525090565b6040518060a00160405280600590602082028036833780820191505090505090565b60405180606001604052806003905b61361161380a565b8152602001906001900390816136095790505090565b604051806101800160405280600073ffffffffffffffffffffffffffffffffffffffff168152602001600081526020016000815260200160008152602001600081526020016000600181111561367957fe5b81526020016000815260200160008152602001600081526020016000815260200160008152602001600060018111156136ae57fe5b81525090565b60405180610100016040528060008152602001600073ffffffffffffffffffffffffffffffffffffffff1681526020016000815260200160008152602001600081526020016000815260200160008152602001600081525090565b828054828255906000526020600020908101928215613752579160200282015b82811115613751578251829062ffffff1690559160200191906001019061372f565b5b50905061375f9190613837565b5090565b8280548282559060005260206000209081019282156137a7579160200282015b828111156137a6578251829063ffffffff16905591602001919060010190613783565b5b5090506137b49190613837565b5090565b8280548282559060005260206000209081019282156137f9579160200282015b828111156137f8578251829060ff169055916020019190600101906137d8565b5b5090506138069190613837565b5090565b60405180608001604052806004905b613821613854565b8152602001906001900390816138195790505090565b5b80821115613850576000816000905550600101613838565b5090565b6040518060e00160405280600081526020016000815260200160008152602001600081526020016000815260200160008152602001600081525090565b6000813590506138a081615d0e565b92915050565b6000813590506138b581615d25565b92915050565b600082601f8301126138cc57600080fd5b60026138df6138da82615836565b615809565b915081838560408402820111156138f557600080fd5b60005b83811015613925578161390b888261392f565b8452602084019350604083019250506001810190506138f8565b5050505092915050565b600082601f83011261394057600080fd5b600261395361394e82615858565b615809565b9150818385602084028201111561396957600080fd5b60005b83811015613999578161397f8882613aca565b84526020840193506020830192505060018101905061396c565b5050505092915050565b600082601f8301126139b457600080fd5b60036139c76139c28261587a565b615809565b915081838560208402820111156139dd57600080fd5b60005b83811015613a0d57816139f38882613aca565b8452602084019350602083019250506001810190506139e0565b5050505092915050565b600082601f830112613a2857600080fd5b6007613a3b613a368261589c565b615809565b91508183856020840282011115613a5157600080fd5b60005b83811015613a815781613a678882613aca565b845260208401935060208301925050600181019050613a54565b5050505092915050565b600081359050613a9a81615d3c565b92915050565b600081519050613aaf81615d3c565b92915050565b600081519050613ac481615d53565b92915050565b600081359050613ad981615d63565b92915050565b600081519050613aee81615d63565b92915050565b600060208284031215613b0657600080fd5b6000613b1484828501613891565b91505092915050565b600080600060608486031215613b3257600080fd5b6000613b4086828701613891565b9350506020613b51868287016138a6565b9250506040613b6286828701613a8b565b9150509250925092565b6000806000806101608587031215613b8357600080fd5b6000613b918782880161392f565b9450506040613ba2878288016138bb565b93505060c0613bb38782880161392f565b925050610100613bc5878288016139a3565b91505092959194509250565b6000806000806101e08587031215613be857600080fd5b6000613bf68782880161392f565b9450506040613c07878288016138bb565b93505060c0613c188782880161392f565b925050610100613c2a87828801613a17565b91505092959194509250565b600060208284031215613c4857600080fd5b6000613c5684828501613aa0565b91505092915050565b600060208284031215613c7157600080fd5b6000613c7f84828501613aca565b91505092915050565b600060208284031215613c9a57600080fd5b6000613ca884828501613adf565b91505092915050565b60008060408385031215613cc457600080fd5b6000613cd285828601613adf565b9250506020613ce385828601613ab5565b9150509250929050565b60008060408385031215613d0057600080fd5b6000613d0e85828601613aca565b9250506020613d1f85828601613aca565b9150509250929050565b6000613d358383613e3b565b60208301905092915050565b6000613d4d8383613fe1565b905092915050565b6000613d6183836141d5565b6103808301905092915050565b6000613d7a8383614283565b60408301905092915050565b6000613d9283836149f4565b6101008301905092915050565b6000613dab8383614a96565b905092915050565b6000613dbf8383614b62565b60e08301905092915050565b6000613dd78383614bf7565b6101808301905092915050565b6000613df08383614cf4565b60e08301905092915050565b6000613e088383614d82565b60208301905092915050565b6000613e208383614daf565b60208301905092915050565b613e3581615c37565b82525050565b613e4481615ba4565b82525050565b613e5381615ba4565b82525050565b6000613e648261596a565b613e6e8185615aad565b9350613e79836158be565b8060005b83811015613eaa578151613e918882613d29565b9750613e9c83615a04565b925050600181019050613e7d565b5085935050505092915050565b6000613ec282615975565b613ecc8185615abe565b935083602082028501613ede856158ce565b8060005b85811015613f1a5784840389528151613efb8582613d41565b9450613f0683615a11565b925060208a01995050600181019050613ee2565b50829750879550505050505092915050565b613f3581615980565b613f3f8184615acf565b9250613f4a826158de565b8060005b83811015613f7b578151613f628782613d55565b9650613f6d83615a1e565b925050600181019050613f4e565b505050505050565b8082525050565b613f938161598b565b613f9d8184615ada565b9250613fa8826158e8565b8060005b83811015613fd9578151613fc08782613d6e565b9650613fcb83615a2b565b925050600181019050613fac565b505050505050565b6000613fec82615996565b613ff68185615ae5565b9350614001836158f2565b8060005b838110156140325781516140198882613d86565b975061402483615a38565b925050600181019050614005565b5085935050505092915050565b600061404a82615996565b6140548185615af6565b935061405f836158f2565b8060005b838110156140905781516140778882613d86565b975061408283615a38565b925050600181019050614063565b5085935050505092915050565b60006140a8826159a1565b6140b28185615b07565b9350836020820285016140c485615902565b8060005b8581101561410057848403895281516140e18582613d9f565b94506140ec83615a45565b925060208a019950506001810190506140c8565b50829750879550505050505092915050565b8082525050565b6000614124826159ac565b61412e8185615b18565b935061413983615912565b8060005b8381101561416a5781516141518882613db3565b975061415c83615a52565b92505060018101905061413d565b5085935050505092915050565b6000614182826159b7565b61418c8185615b29565b935061419783615922565b8060005b838110156141c85781516141af8882613dcb565b97506141ba83615a5f565b92505060018101905061419b565b5085935050505092915050565b6141de816159c2565b6141e88184615b3a565b92506141f382615932565b8060005b8381101561422457815161420b8782613de4565b965061421683615a6c565b9250506001810190506141f7565b505050505050565b614235816159cd565b61423f8184615b45565b925061424a8261593c565b8060005b8381101561427b5781516142628782613e14565b965061426d83615a79565b92505060018101905061424e565b505050505050565b61428c816159cd565b6142968184615b50565b92506142a18261593c565b8060005b838110156142d25781516142b98782613e14565b96506142c483615a79565b9250506001810190506142a5565b505050505050565b6142e3816159d8565b6142ed8184615b5b565b92506142f882615946565b8060005b838110156143295781516143108782613e14565b965061431b83615a86565b9250506001810190506142fc565b505050505050565b61433a816159e3565b6143448184615b66565b925061434f82615950565b8060005b838110156143805781516143678782613e14565b965061437283615a93565b925050600181019050614353565b505050505050565b6000614393826159ee565b61439d8185615b71565b93506143a88361595a565b8060005b838110156143d95781516143c08882613dfc565b97506143cb83615aa0565b9250506001810190506143ac565b5085935050505092915050565b8082525050565b6143f681615bc8565b82525050565b61440581615bc8565b82525050565b61441481615c49565b82525050565b61442381615c5b565b82525050565b61443281615c5b565b82525050565b61444181615c5b565b82525050565b61445081615c6d565b82525050565b61445f81615c6d565b82525050565b61446e81615c6d565b82525050565b8082525050565b8082525050565b8082525050565b8082525050565b600061449b826159f9565b6144a58185615b82565b93506144b5818560208601615ca3565b6144be81615cd6565b840191505092915050565b60006144d4826159f9565b6144de8185615b93565b93506144ee818560208601615ca3565b6144f781615cd6565b840191505092915050565b600061450f600f83615b93565b91507f47616d65206861766520656e64656400000000000000000000000000000000006000830152602082019050919050565b600061454f601683615b93565b91507f6e65774f776e65722063616e6e6f7420626520307830000000000000000000006000830152602082019050919050565b600061458f601683615b93565b91507f506c616e657420697320726174652d6c696d69746564000000000000000000006000830152602082019050919050565b60006145cf601b83615b93565b91507f53656e646572206973206e6f7420612067616d65206d617374657200000000006000830152602082019050919050565b600061460f601d83615b93565b91507f506c6179657220697320616c726561647920696e697469616c697a65640000006000830152602082019050919050565b600061464f601783615b93565b91507f4661696c656420696e69742070726f6f6620636865636b0000000000000000006000830152602082019050919050565b600061468f601983615b93565b91507f506c61796572206973206e6f742077686974656c6973746564000000000000006000830152602082019050919050565b60006146cf603383615b93565b91507f496e69742072616469757320697320626967676572207468616e20746865206360008301527f757272656e7420776f726c6420726164697573000000000000000000000000006020830152604082019050919050565b6000614735601d83615b93565b91507f506c616e657420697320616c726561647920696e697469616c697a65640000006000830152602082019050919050565b6000614775602583615b93565b91507f43616e206f6e6c7920696e697469616c697a65206f6e20706c616e6574206c6560008301527f76656c20300000000000000000000000000000000000000000000000000000006020830152604082019050919050565b60006147db601783615b93565b91507f4661696c6564206d6f76652070726f6f6620636865636b0000000000000000006000830152602082019050919050565b600061481b602e83615b93565b91507f436f6e747261637420696e7374616e63652068617320616c726561647920626560008301527f656e20696e697469616c697a65640000000000000000000000000000000000006020830152604082019050919050565b6000614881601b83615b93565b91507f4e6f7420612076616c696420706c616e6574206c6f636174696f6e00000000006000830152602082019050919050565b60006148c1600e83615b93565b91507f47616d65206973207061757365640000000000000000000000000000000000006000830152602082019050919050565b6000614901601883615b93565b91507f47616d6520697320616c726561647920756e70617573656400000000000000006000830152602082019050919050565b6000614941602083615b93565b91507f417474656d7074696e6720746f206d6f7665206f7574206f6620626f756e64736000830152602082019050919050565b6000614981601683615b93565b91507f47616d6520697320616c726561647920706175736564000000000000000000006000830152602082019050919050565b60006149c1601f83615b93565b91507f506c616e657420686173206e6f74206265656e20696e697469616c697a6564006000830152602082019050919050565b61010082016000820151614a0b6000850182614d82565b506020820151614a1e6020850182613e3b565b506040820151614a316040850182614d82565b506060820151614a446060850182614d82565b506080820151614a576080850182614d82565b5060a0820151614a6a60a0850182614d82565b5060c0820151614a7d60c0850182614d82565b5060e0820151614a9060e0850182614d82565b50505050565b6000610120830160008301518482036000860152614ab48282614490565b9150506020830151614ac96020860182614d82565b506040830151614adc6040860182614d82565b506060830151614aef6060860182614d82565b506080830151614b026080860182614d82565b5060a0830151614b1560a0860182614d82565b5060c0830151614b2860c0860182614d82565b5060e0830151614b3b60e0860182614d82565b50610100830151614b50610100860182614d82565b508091505092915050565b8082525050565b60e082016000820151614b7860008501826143ed565b506020820151614b8b6020850182614d82565b506040820151614b9e6040850182614d82565b506060820151614bb16060850182614d82565b506080820151614bc46080850182614d82565b5060a0820151614bd760a0850182614d82565b5060c0820151614bea60c0850182614d82565b50505050565b8082525050565b61018082016000820151614c0e6000850182613e3b565b506020820151614c216020850182614d82565b506040820151614c346040850182614d82565b506060820151614c476060850182614d82565b506080820151614c5a6080850182614d82565b5060a0820151614c6d60a085018261441a565b5060c0820151614c8060c0850182614d82565b5060e0820151614c9360e0850182614d82565b50610100820151614ca8610100850182614d82565b50610120820151614cbd610120850182614d82565b50610140820151614cd2610140850182614d82565b50610160820151614ce7610160850182614447565b50505050565b8082525050565b60e082016000820151614d0a6000850182614d82565b506020820151614d1d6020850182614d82565b506040820151614d306040850182614d82565b506060820151614d436060850182614d82565b506080820151614d566080850182614d82565b5060a0820151614d6960a0850182614d82565b5060c0820151614d7c60c0850182614d82565b50505050565b614d8b81615c2d565b82525050565b614d9a81615c2d565b82525050565b614da981615c2d565b82525050565b614db881615c2d565b82525050565b6000602082019050614dd36000830184613e4a565b92915050565b6000602082019050614dee6000830184613e2c565b92915050565b6000604082019050614e096000830185613e2c565b614e166020830184614d91565b9392505050565b600061018082019050614e33600083018f613e4a565b614e40602083018e614d91565b614e4d604083018d614d91565b614e5a606083018c614d91565b614e67608083018b614d91565b614e7460a083018a614429565b614e8160c0830189614d91565b614e8e60e0830188614d91565b614e9c610100830187614d91565b614eaa610120830186614d91565b614eb8610140830185614d91565b614ec6610160830184614456565b9d9c50505050505050505050505050565b60006020820190508181036000830152614ef18184613e59565b905092915050565b60006020820190508181036000830152614f138184613eb7565b905092915050565b6000610a8082019050614f316000830184613f2c565b92915050565b6000602082019050614f4c6000830184613f83565b92915050565b60006020820190508181036000830152614f6c818461403f565b905092915050565b60006020820190508181036000830152614f8e818461409d565b905092915050565b6000602082019050614fab6000830184614112565b92915050565b60006020820190508181036000830152614fcb8184614119565b905092915050565b60006020820190508181036000830152614fed8184614177565b905092915050565b60006101608201905061500b600083018761422c565b6150186040830186613f8a565b61502560c083018561422c565b6150336101008301846142da565b95945050505050565b60006101a082019050615052600083018761422c565b61505f6040830186613f8a565b61506c60c083018561422c565b61507a610100830184614331565b95945050505050565b6000602082019050818103600083015261509d8184614388565b905092915050565b600060a0820190506150ba60008301886143e6565b6150c760208301876143e6565b6150d46040830186614da0565b6150e16060830185614da0565b6150ee6080830184614da0565b9695505050505050565b600060208201905061510d60008301846143fc565b92915050565b600060e082019050615128600083018a6143fc565b6151356020830189614d91565b6151426040830188614d91565b61514f6060830187614d91565b61515c6080830186614d91565b61516960a0830185614d91565b61517660c0830184614d91565b98975050505050505050565b60006020820190506151976000830184614456565b92915050565b60006101208201905081810360008301526151b8818c6144c9565b90506151c7602083018b614d91565b6151d4604083018a614d91565b6151e16060830189614d91565b6151ee6080830188614d91565b6151fb60a0830187614d91565b61520860c0830186614d91565b61521560e0830185614d91565b615223610100830184614d91565b9a9950505050505050505050565b6000602082019050818103600083015261524a81614502565b9050919050565b6000602082019050818103600083015261526a81614542565b9050919050565b6000602082019050818103600083015261528a81614582565b9050919050565b600060208201905081810360008301526152aa816145c2565b9050919050565b600060208201905081810360008301526152ca81614602565b9050919050565b600060208201905081810360008301526152ea81614642565b9050919050565b6000602082019050818103600083015261530a81614682565b9050919050565b6000602082019050818103600083015261532a816146c2565b9050919050565b6000602082019050818103600083015261534a81614728565b9050919050565b6000602082019050818103600083015261536a81614768565b9050919050565b6000602082019050818103600083015261538a816147ce565b9050919050565b600060208201905081810360008301526153aa8161480e565b9050919050565b600060208201905081810360008301526153ca81614874565b9050919050565b600060208201905081810360008301526153ea816148b4565b9050919050565b6000602082019050818103600083015261540a816148f4565b9050919050565b6000602082019050818103600083015261542a81614934565b9050919050565b6000602082019050818103600083015261544a81614974565b9050919050565b6000602082019050818103600083015261546a816149b4565b9050919050565b600061012082019050615487600083018c614ced565b615494602083018b614bf0565b6154a1604083018a614b5b565b6154ae6060830189614da0565b6154bb6080830188614da0565b6154c860a0830187614465565b6154d560c0830186614438565b6154e260e0830185614da0565b6154f0610100830184614da0565b9a9950505050505050505050565b60006060820190506155136000830186614ced565b6155206020830185614bf0565b61552d6040830184614da0565b949350505050565b600060a08201905061554a6000830188614ced565b6155576020830187614bf0565b6155646040830186614da0565b6155716060830185614112565b61557e6080830184613f83565b9695505050505050565b600060208201905061559d6000830184614d91565b92915050565b6000610100820190506155b9600083018b614d91565b6155c6602083018a613e4a565b6155d36040830189614d91565b6155e06060830188614d91565b6155ed6080830187614d91565b6155fa60a0830186614d91565b61560760c0830185614d91565b61561460e0830184614d91565b9998505050505050505050565b60006080820190506156366000830187614d91565b615643602083018661440b565b6156506040830185614d91565b61565d6060830184614d91565b95945050505050565b600060a08201905061567b6000830188614da0565b6156886020830187614474565b6156956040830186614489565b6156a26060830185614482565b6156af608083018461447b565b9695505050505050565b60006080820190506156ce6000830187614da0565b6156db6020830186614da0565b6156e860408301856143e6565b6156f56060830184614112565b95945050505050565b600060e082019050615713600083018a614d91565b6157206020830189614d91565b61572d6040830188614d91565b61573a6060830187614d91565b6157476080830186614d91565b61575460a0830185614d91565b61576160c0830184614d91565b98975050505050505050565b600061014082019050615783600083018d614da0565b615790602083018c614da0565b61579d604083018b614da0565b6157aa606083018a614da0565b6157b76080830189614da0565b6157c460a0830188614da0565b6157d160c0830187614da0565b6157de60e0830186614489565b6157ec610100830185614474565b6157fa61012083018461447b565b9b9a5050505050505050505050565b6000604051905081810181811067ffffffffffffffff8211171561582c57600080fd5b8060405250919050565b600067ffffffffffffffff82111561584d57600080fd5b602082029050919050565b600067ffffffffffffffff82111561586f57600080fd5b602082029050919050565b600067ffffffffffffffff82111561589157600080fd5b602082029050919050565b600067ffffffffffffffff8211156158b357600080fd5b602082029050919050565b6000819050602082019050919050565b6000819050602082019050919050565b6000819050919050565b6000819050919050565b6000819050602082019050919050565b6000819050602082019050919050565b6000819050602082019050919050565b6000819050602082019050919050565b6000819050919050565b6000819050919050565b6000819050919050565b6000819050919050565b6000819050602082019050919050565b600081519050919050565b600081519050919050565b600060039050919050565b600060029050919050565b600081519050919050565b600081519050919050565b600081519050919050565b600081519050919050565b600060049050919050565b600060029050919050565b600060039050919050565b600060059050919050565b600081519050919050565b600081519050919050565b6000602082019050919050565b6000602082019050919050565b6000602082019050919050565b6000602082019050919050565b6000602082019050919050565b6000602082019050919050565b6000602082019050919050565b6000602082019050919050565b6000602082019050919050565b6000602082019050919050565b6000602082019050919050565b6000602082019050919050565b6000602082019050919050565b600082825260208201905092915050565b600082825260208201905092915050565b600081905092915050565b600081905092915050565b600082825260208201905092915050565b600082825260208201905092915050565b600082825260208201905092915050565b600082825260208201905092915050565b600082825260208201905092915050565b600081905092915050565b600081905092915050565b600081905092915050565b600081905092915050565b600081905092915050565b600082825260208201905092915050565b600082825260208201905092915050565b600082825260208201905092915050565b6000615baf82615c0d565b9050919050565b6000615bc182615c0d565b9050919050565b60008115159050919050565b6000819050615be282615ce7565b919050565b6000819050615bf582615cf4565b919050565b6000819050615c0882615d01565b919050565b600073ffffffffffffffffffffffffffffffffffffffff82169050919050565b6000819050919050565b6000615c4282615c7f565b9050919050565b6000615c5482615bd4565b9050919050565b6000615c6682615be7565b9050919050565b6000615c7882615bfa565b9050919050565b6000615c8a82615c91565b9050919050565b6000615c9c82615c0d565b9050919050565b60005b83811015615cc1578082015181840152602081019050615ca6565b83811115615cd0576000848401525b50505050565b6000601f19601f8301169050919050565b60018110615cf157fe5b50565b60028110615cfe57fe5b50565b60028110615d0b57fe5b50565b615d1781615ba4565b8114615d2257600080fd5b50565b615d2e81615bb6565b8114615d3957600080fd5b50565b615d4581615bc8565b8114615d5057600080fd5b50565b60028110615d6057600080fd5b50565b615d6c81615c2d565b8114615d7757600080fd5b5056fea2646970667358221220499785fadd4ba8883fbf402871c5aa71cd8b2dfe8b8aa7710d3b84df8be92fcb64736f6c634300060c0033",
  "compiler": {
    "name": "solc",
    "version": "0.6.12+commit.27d51765.Emscripten.clang",
    "optimizer": {
      "enabled": false,
      "runs": 200
    },
    "evmVersion": "petersburg"
  }
}