{
  "fileName": "Whitelist.sol",
  "contractName": "Whitelist",
  "source": "// SPDX-License-Identifier: UNLICENSED\npragma solidity ^0.6.0;\npragma experimental ABIEncoderV2;\n\n// Import base Initializable contract\nimport \"@openzeppelin/contracts-ethereum-package/contracts/Initializable.sol\";\n\ncontract Whitelist is Initializable {\n    bool whitelistEnabled;\n    mapping(address => bool) allowedAccounts;\n    mapping(bytes32 => bool) allowedKeyHashes;\n    address[] allowedAccountsArray;\n    address admin;\n\n    // administrative\n    modifier onlyAdmin() {\n        require(\n            msg.sender == admin,\n            \"Only administrator can perform this action\"\n        );\n        _;\n    }\n\n    function changeAdmin(address _newAdmin) public onlyAdmin {\n        admin = _newAdmin;\n    }\n\n    function initialize(address _admin, bool _whitelistEnabled)\n        public\n        initializer\n    {\n        admin = _admin;\n        whitelistEnabled = _whitelistEnabled;\n    }\n\n    // public getters\n    function getNAllowed() public view returns (uint256) {\n        return allowedAccountsArray.length;\n    }\n\n    function isWhitelisted(address _addr) public view returns (bool) {\n        if (!whitelistEnabled) {\n            return true;\n        }\n        return allowedAccounts[_addr];\n    }\n\n    function isKeyValid(string memory key) public view returns (bool) {\n        bytes32 hashed = keccak256(abi.encodePacked(key));\n        return allowedKeyHashes[hashed];\n    }\n\n    // modify whitelist\n    function addKeys(bytes32[] memory hashes) public onlyAdmin {\n        for (uint16 i = 0; i < hashes.length; i++) {\n            allowedKeyHashes[hashes[i]] = true;\n        }\n    }\n\n    function useKey(string memory key, address owner) public onlyAdmin {\n        require(!allowedAccounts[owner], \"player already whitelisted\");\n        bytes32 hashed = keccak256(abi.encodePacked(key));\n        require(allowedKeyHashes[hashed], \"invalid key\");\n        allowedAccounts[owner] = true;\n        allowedAccountsArray.push(owner);\n        allowedKeyHashes[hashed] = false;\n        // xDAI ONLY\n        payable(owner).transfer(0.05 ether);\n    }\n\n    function removeFromWhitelist(address toRemove) public onlyAdmin {\n        require(\n            allowedAccounts[toRemove],\n            \"player was not whitelisted to begin with\"\n        );\n        allowedAccounts[toRemove] = false;\n        for (uint256 i = 0; i < allowedAccountsArray.length; i++) {\n            if (allowedAccountsArray[i] == toRemove) {\n                allowedAccountsArray[i] = allowedAccountsArray[allowedAccountsArray\n                    .length - 1];\n                allowedAccountsArray.pop();\n            }\n        }\n    }\n\n    function receiveEther() external payable {}\n\n    receive() external payable {}\n}\n",
  "sourcePath": "contracts/core/Whitelist.sol",
  "abi": [
    {
      "inputs": [
        {
          "internalType": "bytes32[]",
          "name": "hashes",
          "type": "bytes32[]"
        }
      ],
      "name": "addKeys",
      "outputs": [],
      "stateMutability": "nonpayable",
      "type": "function"
    },
    {
      "inputs": [
        {
          "internalType": "address",
          "name": "_newAdmin",
          "type": "address"
        }
      ],
      "name": "changeAdmin",
      "outputs": [],
      "stateMutability": "nonpayable",
      "type": "function"
    },
    {
      "inputs": [],
      "name": "getNAllowed",
      "outputs": [
        {
          "internalType": "uint256",
          "name": "",
          "type": "uint256"
        }
      ],
      "stateMutability": "view",
      "type": "function"
    },
    {
      "inputs": [
        {
          "internalType": "address",
          "name": "_admin",
          "type": "address"
        },
        {
          "internalType": "bool",
          "name": "_whitelistEnabled",
          "type": "bool"
        }
      ],
      "name": "initialize",
      "outputs": [],
      "stateMutability": "nonpayable",
      "type": "function"
    },
    {
      "inputs": [
        {
          "internalType": "string",
          "name": "key",
          "type": "string"
        }
      ],
      "name": "isKeyValid",
      "outputs": [
        {
          "internalType": "bool",
          "name": "",
          "type": "bool"
        }
      ],
      "stateMutability": "view",
      "type": "function"
    },
    {
      "inputs": [
        {
          "internalType": "address",
          "name": "_addr",
          "type": "address"
        }
      ],
      "name": "isWhitelisted",
      "outputs": [
        {
          "internalType": "bool",
          "name": "",
          "type": "bool"
        }
      ],
      "stateMutability": "view",
      "type": "function"
    },
    {
      "inputs": [],
      "name": "receiveEther",
      "outputs": [],
      "stateMutability": "payable",
      "type": "function"
    },
    {
      "inputs": [
        {
          "internalType": "address",
          "name": "toRemove",
          "type": "address"
        }
      ],
      "name": "removeFromWhitelist",
      "outputs": [],
      "stateMutability": "nonpayable",
      "type": "function"
    },
    {
      "inputs": [
        {
          "internalType": "string",
          "name": "key",
          "type": "string"
        },
        {
          "internalType": "address",
          "name": "owner",
          "type": "address"
        }
      ],
      "name": "useKey",
      "outputs": [],
      "stateMutability": "nonpayable",
      "type": "function"
    },
    {
      "stateMutability": "payable",
      "type": "receive"
    }
  ],
  "bytecode": "0x608060405234801561001057600080fd5b506112bc806100206000396000f3fe60806040526004361061008a5760003560e01c80638f283970116100595780638f2839701461014e578063a3912ec814610177578063badaad2a14610181578063c175559b146101aa578063d8d5fc87146101d557610091565b8063188caf8a146100965780633af32abf146100bf578063400ada75146100fc5780638ab1d6811461012557610091565b3661009157005b600080fd5b3480156100a257600080fd5b506100bd60048036038101906100b89190610d41565b610212565b005b3480156100cb57600080fd5b506100e660048036038101906100e19190610cdc565b610306565b6040516100f3919061102f565b60405180910390f35b34801561010857600080fd5b50610123600480360381019061011e9190610d05565b61037a565b005b34801561013157600080fd5b5061014c60048036038101906101479190610cdc565b6104bf565b005b34801561015a57600080fd5b5061017560048036038101906101709190610cdc565b610795565b005b61017f610869565b005b34801561018d57600080fd5b506101a860048036038101906101a39190610dc3565b61086b565b005b3480156101b657600080fd5b506101bf610b4d565b6040516101cc91906110ea565b60405180910390f35b3480156101e157600080fd5b506101fc60048036038101906101f79190610d82565b610b5a565b604051610209919061102f565b60405180910390f35b603760009054906101000a900473ffffffffffffffffffffffffffffffffffffffff1673ffffffffffffffffffffffffffffffffffffffff163373ffffffffffffffffffffffffffffffffffffffff16146102a2576040517f08c379a0000000000000000000000000000000000000000000000000000000008152600401610299906110aa565b60405180910390fd5b60005b81518161ffff16101561030257600160356000848461ffff16815181106102c857fe5b6020026020010151815260200190815260200160002060006101000a81548160ff02191690831515021790555080806001019150506102a5565b5050565b6000603360009054906101000a900460ff166103255760019050610375565b603460008373ffffffffffffffffffffffffffffffffffffffff1673ffffffffffffffffffffffffffffffffffffffff16815260200190815260200160002060009054906101000a900460ff1690505b919050565b600060019054906101000a900460ff16806103995750610398610baf565b5b806103af575060008054906101000a900460ff16155b6103ee576040517f08c379a00000000000000000000000000000000000000000000000000000000081526004016103e59061106a565b60405180910390fd5b60008060019054906101000a900460ff16159050801561043e576001600060016101000a81548160ff02191690831515021790555060016000806101000a81548160ff0219169083151502179055505b82603760006101000a81548173ffffffffffffffffffffffffffffffffffffffff021916908373ffffffffffffffffffffffffffffffffffffffff16021790555081603360006101000a81548160ff02191690831515021790555080156104ba5760008060016101000a81548160ff0219169083151502179055505b505050565b603760009054906101000a900473ffffffffffffffffffffffffffffffffffffffff1673ffffffffffffffffffffffffffffffffffffffff163373ffffffffffffffffffffffffffffffffffffffff161461054f576040517f08c379a0000000000000000000000000000000000000000000000000000000008152600401610546906110aa565b60405180910390fd5b603460008273ffffffffffffffffffffffffffffffffffffffff1673ffffffffffffffffffffffffffffffffffffffff16815260200190815260200160002060009054906101000a900460ff166105db576040517f08c379a00000000000000000000000000000000000000000000000000000000081526004016105d2906110ca565b60405180910390fd5b6000603460008373ffffffffffffffffffffffffffffffffffffffff1673ffffffffffffffffffffffffffffffffffffffff16815260200190815260200160002060006101000a81548160ff02191690831515021790555060005b603680549050811015610791578173ffffffffffffffffffffffffffffffffffffffff166036828154811061066757fe5b9060005260206000200160009054906101000a900473ffffffffffffffffffffffffffffffffffffffff1673ffffffffffffffffffffffffffffffffffffffff161415610784576036600160368054905003815481106106c357fe5b9060005260206000200160009054906101000a900473ffffffffffffffffffffffffffffffffffffffff16603682815481106106fb57fe5b9060005260206000200160006101000a81548173ffffffffffffffffffffffffffffffffffffffff021916908373ffffffffffffffffffffffffffffffffffffffff160217905550603680548061074e57fe5b6001900381819060005260206000200160006101000a81549073ffffffffffffffffffffffffffffffffffffffff021916905590555b8080600101915050610636565b5050565b603760009054906101000a900473ffffffffffffffffffffffffffffffffffffffff1673ffffffffffffffffffffffffffffffffffffffff163373ffffffffffffffffffffffffffffffffffffffff1614610825576040517f08c379a000000000000000000000000000000000000000000000000000000000815260040161081c906110aa565b60405180910390fd5b80603760006101000a81548173ffffffffffffffffffffffffffffffffffffffff021916908373ffffffffffffffffffffffffffffffffffffffff16021790555050565b565b603760009054906101000a900473ffffffffffffffffffffffffffffffffffffffff1673ffffffffffffffffffffffffffffffffffffffff163373ffffffffffffffffffffffffffffffffffffffff16146108fb576040517f08c379a00000000000000000000000000000000000000000000000000000000081526004016108f2906110aa565b60405180910390fd5b603460008273ffffffffffffffffffffffffffffffffffffffff1673ffffffffffffffffffffffffffffffffffffffff16815260200190815260200160002060009054906101000a900460ff1615610988576040517f08c379a000000000000000000000000000000000000000000000000000000000815260040161097f9061104a565b60405180910390fd5b60008260405160200161099b9190611018565b6040516020818303038152906040528051906020012090506035600082815260200190815260200160002060009054906101000a900460ff16610a13576040517f08c379a0000000000000000000000000000000000000000000000000000000008152600401610a0a9061108a565b60405180910390fd5b6001603460008473ffffffffffffffffffffffffffffffffffffffff1673ffffffffffffffffffffffffffffffffffffffff16815260200190815260200160002060006101000a81548160ff0219169083151502179055506036829080600181540180825580915050600190039060005260206000200160009091909190916101000a81548173ffffffffffffffffffffffffffffffffffffffff021916908373ffffffffffffffffffffffffffffffffffffffff16021790555060006035600083815260200190815260200160002060006101000a81548160ff0219169083151502179055508173ffffffffffffffffffffffffffffffffffffffff166108fc66b1a2bc2ec500009081150290604051600060405180830381858888f19350505050158015610b47573d6000803e3d6000fd5b50505050565b6000603680549050905090565b60008082604051602001610b6e9190611018565b6040516020818303038152906040528051906020012090506035600082815260200190815260200160002060009054906101000a900460ff16915050919050565b6000803090506000813b9050600081149250505090565b600081359050610bd581611241565b92915050565b600082601f830112610bec57600080fd5b8135610bff610bfa82611132565b611105565b91508181835260208401935060208101905083856020840282011115610c2457600080fd5b60005b83811015610c545781610c3a8882610c73565b845260208401935060208301925050600181019050610c27565b5050505092915050565b600081359050610c6d81611258565b92915050565b600081359050610c828161126f565b92915050565b600082601f830112610c9957600080fd5b8135610cac610ca78261115a565b611105565b91508082526020830160208301858383011115610cc857600080fd5b610cd38382846111ff565b50505092915050565b600060208284031215610cee57600080fd5b6000610cfc84828501610bc6565b91505092915050565b60008060408385031215610d1857600080fd5b6000610d2685828601610bc6565b9250506020610d3785828601610c5e565b9150509250929050565b600060208284031215610d5357600080fd5b600082013567ffffffffffffffff811115610d6d57600080fd5b610d7984828501610bdb565b91505092915050565b600060208284031215610d9457600080fd5b600082013567ffffffffffffffff811115610dae57600080fd5b610dba84828501610c88565b91505092915050565b60008060408385031215610dd657600080fd5b600083013567ffffffffffffffff811115610df057600080fd5b610dfc85828601610c88565b9250506020610e0d85828601610bc6565b9150509250929050565b610e20816111bf565b82525050565b6000610e3182611186565b610e3b81856111a2565b9350610e4b81856020860161120e565b80840191505092915050565b6000610e64601a83611191565b91507f706c6179657220616c72656164792077686974656c69737465640000000000006000830152602082019050919050565b6000610ea4602e83611191565b91507f436f6e747261637420696e7374616e63652068617320616c726561647920626560008301527f656e20696e697469616c697a65640000000000000000000000000000000000006020830152604082019050919050565b6000610f0a600b83611191565b91507f696e76616c6964206b65790000000000000000000000000000000000000000006000830152602082019050919050565b6000610f4a602a83611191565b91507f4f6e6c792061646d696e6973747261746f722063616e20706572666f726d207460008301527f68697320616374696f6e000000000000000000000000000000000000000000006020830152604082019050919050565b6000610fb0602883611191565b91507f706c6179657220776173206e6f742077686974656c697374656420746f20626560008301527f67696e20776974680000000000000000000000000000000000000000000000006020830152604082019050919050565b611012816111f5565b82525050565b60006110248284610e26565b915081905092915050565b60006020820190506110446000830184610e17565b92915050565b6000602082019050818103600083015261106381610e57565b9050919050565b6000602082019050818103600083015261108381610e97565b9050919050565b600060208201905081810360008301526110a381610efd565b9050919050565b600060208201905081810360008301526110c381610f3d565b9050919050565b600060208201905081810360008301526110e381610fa3565b9050919050565b60006020820190506110ff6000830184611009565b92915050565b6000604051905081810181811067ffffffffffffffff8211171561112857600080fd5b8060405250919050565b600067ffffffffffffffff82111561114957600080fd5b602082029050602081019050919050565b600067ffffffffffffffff82111561117157600080fd5b601f19601f8301169050602081019050919050565b600081519050919050565b600082825260208201905092915050565b600081905092915050565b60006111b8826111d5565b9050919050565b60008115159050919050565b6000819050919050565b600073ffffffffffffffffffffffffffffffffffffffff82169050919050565b6000819050919050565b82818337600083830152505050565b60005b8381101561122c578082015181840152602081019050611211565b8381111561123b576000848401525b50505050565b61124a816111ad565b811461125557600080fd5b50565b611261816111bf565b811461126c57600080fd5b50565b611278816111cb565b811461128357600080fd5b5056fea2646970667358221220c4d554a11a293b943e0510feb3e5247292b3d9e2b3e8343878bb0643f5cf46d664736f6c634300060c0033",
  "compiler": {
    "name": "solc",
    "version": "0.6.12+commit.27d51765.Emscripten.clang",
    "optimizer": {
      "enabled": false,
      "runs": 200
    },
    "evmVersion": "petersburg"
  }
}